:100000000C9446000C9466000C9466000C946600F8
:100010000C9466000C9466000C9466000C946600C8
:100020000C9466000C9466000C9466000C946600B8
:100030000C9466000C9466000C9466000C946600A8
:100040000C9466000C9466000C9466000C94660098
:100050000C9466000C9466000C9466000C94660088
:100060000C9466000C9466000C9466000C94660078
:100070000C9466000C9466000C9466000C94660068
:100080000C9466000C9466000C94660011241FBE4C
:10009000CFEFD0E1DEBFCDBF12E0A0E0B1E0EAE1FA
:1000A000FCE000E00BBF02C007900D92A631B10743
:1000B000D9F71BBE12E0A6E1B2E001C01D92A63145
:1000C000B107E1F70E943B050C940B060C9400006D
:1000D00017BAE5E6F0E080818E7F808380818260C0
:1000E000808380818460808386B390819B7F9083AE
:1000F0000895EFE9FFE03197F1F700C000009FEFAE
:1001000097BBE5E6F0E090819E7F908390819D7F94
:10011000908388BB80818460808380818B7F808393
:10012000089517BAE5E6F0E08081816080838081E0
:100130008260808380818460808386B390819B7F8E
:1001400090830895EFE1FEE43197F1F700C00000DD
:100150009FEF97BBE5E6F0E09081916090839081FE
:100160009D7F908388BB80818460808380818B7F2A
:10017000808308958FEF87BB87E0809364008FE5CD
:100180009AEE0197F1F700C0000088E30E94790021
:10019000AFE1BEE41197F1F700C0000088E30E94D0
:1001A00079008FEF91EEA4E081509040A040E1F7FC
:1001B00000C0000088E30E94790088E00E94790076
:1001C00081E00E94790086E00E9479008CE00E9424
:1001D00079000895CF93DF93EC0102C00E94A20042
:1001E00089918823D9F7DF91CF9108956295660FA1
:1001F000660F607C8068862B0E9479000895EF92DC
:10020000FF920F931F93CF93DF938C0168EE73E0FF
:100210000E94AD057C01862F805D0E94A200C4E68D
:10022000D0E0C701BE010E94AD05862F805D0E940F
:10023000A200C801BE010E94AD05CAE0D0E0BE0127
:100240000E94AD05862F805D0E94A200C801BE01FC
:100250000E94AD05805D0E94A200DF91CF911F91A9
:100260000F91FF90EF900895A0E2B0E0EAE3F1E093
:100270000C94D605DC01CB018D839E83AF83B887B8
:1002800029833A834B835C83CE010596BE01675E6A
:100290007F4F0E94D204CE010196BE016F5E7F4F58
:1002A0000E94D204998D923078F089898230C0F012
:1002B000943019F4823041F4CAC0843019F4923079
:1002C00079F4C5C0923051F481E02A8D9A892917BA
:1002D00009F480E08A8FCE014996BBC0823051F488
:1002E00081E02A8D9A89291709F480E08A8BCE0152
:1002F0004196AFC04D8C5E8C6F8C78A00D891E89A5
:100300002F89388DE0E2F0E040E050E0BA01882427
:1003100099245401CC24DD247601C20181709070AF
:100320000097D1F0C00ED11EE21EF31EDB01CA0100
:10033000880D991DAA1DBB1D41E050E060E070E0F2
:10034000C016D106E206F30618F040E050E0BA010C
:10035000480F591F6A1F7B1F880C991CAA1CBB1CC5
:1003600037FF08C081E090E0A0E0B0E0882A992A39
:10037000AA2ABB2A000F111F221F331F76946794ED
:1003800057944794319749F68B8D9C8D2B893C89E6
:10039000820F931F02969C878B8781E02A8D9A8912
:1003A000291709F480E08A872B853C8517C0CA018C
:1003B00081709070009761F0F694E794D794C79499
:1003C00080E090E0A0E0B0E8C82AD92AEA2AFB2A17
:1003D00076956795579547952F5F3F4F77FDE7CF08
:1003E000C9010BC0440F551F661F771FF7FC416002
:1003F000CC0CDD1CEE1CFF1C01974030A0E05A071E
:10040000A0E06A07A0E47A0768F38B879C87DB018A
:10041000CA018F779070A070B07080349105A105EB
:10042000B10561F447FD0AC0C114D104E104F1042F
:1004300029F0405C5F4F6F4F7F4F40784D875E875C
:100440006F87788B83E08987CE01099602C08EE0A2
:1004500091E00E94FB03462F572F682F792FCB0185
:10046000BA01A096E0E10C94F205A8E1B0E0EBE35C
:10047000F2E00C94DE05DC01CB018D839E83AF831B
:10048000B88729833A834B835C83CE010596BE01EE
:100490006F5E7F4F0E94D204CE010196BE01675F5E
:1004A0007F4F0E94D2049989923008F475C08985E3
:1004B000823008F474C02A893A8523272A8B943025
:1004C00011F0923021F4981709F066C06BC08430A7
:1004D00039F41D8A1E8A1F8A188E1C8A1B8A5CC0EA
:1004E000823019F484E0898B57C02B893C898B8535
:1004F0009C85281B390B3C8B2B8B8D899E89AF8962
:10050000B88DCD84DE84EF84F8888C159D05AE050A
:10051000BF0540F4880F991FAA1FBB1F2150304010
:100520003C8B2B8BEFE1F0E000E010E020E030E4CA
:1005300040E050E0BA018C159D05AE05BF0540F0C6
:10054000402B512B622B732B8C199D09AE09BF09CF
:100550003695279517950795880F991FAA1FBB1FDA
:10056000319749F78A019B010F7710702070307026
:10057000003411052105310559F447FD09C00097E4
:10058000A105B10529F0405C5F4F6F4F7F4F407868
:100590004D8B5E8B6F8B788FCE01419605C0CE015F
:1005A000099602C08EE091E00E94FB03462F572F70
:1005B000682F792FCB01BA016896E8E00C94FA0510
:1005C000CF92DF92EF92FF92CF93DF93CDB7DEB75A
:1005D00028970FB6F894DEBF0FBECDBF6B017C012C
:1005E00083E08983D701C6018827B7FD83959927C2
:1005F000AA27BB27282F8A83C114D104E104F10460
:1006000019F482E0898335C08EE190E09C838B836E
:10061000222389F080E0C81680E0D80680E0E80652
:1006200080E8F80659F1F094E094D094C094C11C8D
:10063000D11CE11CF11CCD82DE82EF82F886C7015D
:10064000B6010E94A80301971816190694F4082E03
:1006500004C0CC0CDD1CEE1CFF1C0A94D2F7CD822A
:10066000DE82EF82F8862EE130E0281B390B3C83D6
:100670002B83CE0101960E94FB0304C060E070E072
:1006800080E09FEC382F292F862F972FA32FB22F92
:10069000BC01CD0128960FB6F894DEBF0FBECDBFCA
:1006A000DF91CF91FF90EF90DF90CF900895ACE075
:1006B000B0E0EDE5F3E00C94E205DC01CB018983C9
:1006C0009A83AB83BC83CE010196BE016B5F7F4FE3
:1006D0000E94D2048D81823069F1823058F18430D9
:1006E00039F02F81388537FD25C02F31310544F091
:1006F0008E81882319F100E010E020E030E822C06C
:100700008EE190E0821B930B09851A852B853C8531
:1007100004C036952795179507958A95D2F78E814F
:10072000882381F030952095109501951F4F2F4F0C
:100730003F4F08C000E010E0980104C00FEF1FEF2A
:100740002FEF3FE7B801C9012C96E4E00C94FE05B9
:10075000CF92DF92EF92FF920F931F938B019C0138
:10076000003080E0180781E0280780E0380750F467
:100770000F3F11052105310509F088F480E090E074
:10078000DC0116C00030E0E01E07E0E02E07E1E0EB
:100790003E0750F480E190E0A0E0B0E009C088E0BE
:1007A00090E0A0E0B0E004C088E190E0A0E0B0E01C
:1007B00040E250E060E070E0481B590B6A0B7B0B95
:1007C0006801790104C0F694E794D794C7948A9598
:1007D000D2F7D701C6018A5E9E4FFC018081481B7B
:1007E000510961097109CA011F910F91FF90EF90A2
:1007F000DF90CF900895CF92DF92EF92FF920F9308
:100800001F93DC0114964D915D916D917C9117972A
:100810001196EC9111978C91823020F460618FEFEA
:1008200090E0A5C0843009F49DC0823009F494C0E2
:10083000411551056105710509F491C012968D911C
:100840009C9113972FEF823892070CF059C022E841
:100850003FEF281B390B2A31310564F56A017B0112
:10086000022E04C0F694E794D794C7940A94D2F762
:1008700081E090E0A0E0B0E004C0880F991FAA1FBB
:10088000BB1F2A95D2F70197A109B10984239523AB
:10089000A623B72341E050E060E070E00097A10597
:1008A000B10519F440E050E0BA014C295D296E29E8
:1008B0007F2903C040E050E0BA01DB01CA018F7715
:1008C0009070A070B07080349105A105B10539F425
:1008D00047FF09C0405C5F4F6F4F7F4F04C0415CD2
:1008E0005F4F6F4F7F4F81E090E0403020E0520734
:1008F00020E0620720E4720738F580E090E024C031
:10090000803891057CF58A019B010F77107020706B
:100910003070003411052105310539F447FF09C055
:10092000405C5F4F6F4F7F4F04C0415C5F4F6F4F24
:100930007F4F77FD03C081589F4F06C0769567951E
:100940005795479580589F4F97E0769567955795AF
:1009500047959A95D1F70BC080E090E005C080E004
:1009600090E005C08FEF90E040E050E0BA01982F92
:10097000979599279795A62FAF77E795EE27E79557
:1009800086953A2F392B282F2E2B842F952FA32F86
:10099000B22FBC01CD011F910F91FF90EF90DF901E
:1009A000CF900895DC01FB014C9111965C91119759
:1009B00012968C911297682F6F7770E0982F991F7D
:1009C0009927991F13962C911397822F880F892BA3
:1009D00090E0221F2227221F2183009739F541151D
:1009E00051056105710511F482E029C082E89FEF8D
:1009F0009383828327E0440F551F661F771F2A9534
:100A0000D1F783E0808309C0440F551F661F771F0D
:100A100082819381019793838283403080E05807DD
:100A200080E0680780E4780778F320C08F3F910565
:100A300079F4411551056105710519F484E080834D
:100A4000089564FF03C081E0808310C010820EC04F
:100A50008F5790409383828383E0808387E0440FA5
:100A6000551F661F771F8A95D1F77064448355839D
:100A70006683778308950E94BA003E9A86E886B915
:100A8000FF24F39488EEA82E83E0B82E94E6892EF6
:100A9000912C0AE010E087B18F2587B9369A349BF4
:100AA000FECFC4B1D0E085B1D82ECC24CC29DD292D
:100AB00080E0389B06C061E00E94F60080E091E093
:100AC00005C060E00E94F60087E091E00E94EA0025
:100AD000CE010E94FF00BE01882777FD8095982FE8
:100AE0000E94E00220E030EC4FE754E40E9435021F
:100AF00020E030E040EA50E40E94340120E030E0A1
:100B000048EC52E40E9434010E945703DC01CB01FF
:100B1000EC0180E20E94A200CE01B5010E94C10555
:100B2000862F805D0E94A2008EE20E94A200CE016C
:100B3000B4010E94C105B8010E94C105862F805DE5
:100B40000E94A200CE01B8010E94C105805D0E94F2
:100B5000A20086E70E94A2009ECFAA1BBB1B51E108
:100B600007C0AA1FBB1FA617B70710F0A61BB70B1D
:100B7000881F991F5A95A9F780959095BC01CD01C2
:100B8000089597FB092E07260AD077FD04D0E5DFEC
:100B900006D000201AF4709561957F4F0895F6F7FE
:100BA000909581959F4F08952F923F924F925F921B
:100BB0006F927F928F929F92AF92BF92CF92DF926D
:100BC000EF92FF920F931F93CF93DF93CDB7DEB7D2
:100BD000CA1BDB0B0FB6F894DEBF0FBECDBF099466
:100BE0002A88398848885F846E847D848C849B84BD
:100BF000AA84B984C884DF80EE80FD800C811B81CB
:100C0000AA81B981CE0FD11D0FB6F894DEBF0FBEF9
:0A0C1000CDBFED010895F894FFCF69
:100C1A00414443313A2000414443303A2000000025
:100C2A0000000000000000010202030303030404A1
:100C3A000404040404040505050505050505050560
:100C4A000505050505050606060606060606060640
:100C5A00060606060606060606060606060606062A
:100C6A000606060606060707070707070707070710
:100C7A0007070707070707070707070707070707FA
:100C8A0007070707070707070707070707070707EA
:100C9A0007070707070707070707070707070707DA
:100CAA0007070707070708080808080808080808C0
:100CBA0008080808080808080808080808080808AA
:100CCA00080808080808080808080808080808089A
:100CDA00080808080808080808080808080808088A
:100CEA00080808080808080808080808080808087A
:100CFA00080808080808080808080808080808086A
:100D0A000808080808080808080808080808080859
:100D1A000808080808080808080808080808080849
:060D2A0008080808080893
:00000001FF
