:100000000C9446000C9466000C9466000C946600F8
:100010000C9466000C9466000C9466000C946600C8
:100020000C9466000C9466000C9466000C946600B8
:100030000C9466000C9466000C9466000C946600A8
:100040000C9466000C9466000C9466000C94660098
:100050000C9466000C9466000C9466000C94660088
:100060000C9466000C9466000C9466000C94660078
:100070000C9466000C9466000C9466000C94660068
:100080000C9466000C9466000C94660011241FBE4C
:10009000CFEFD0E1DEBFCDBF11E0A0E0B1E0E8E0FE
:1000A000F2E000E00BBF02C007900D92AA30B1074A
:1000B000D9F71BBE11E0AAE0B1E001C01D92AB3040
:1000C000B107E1F70E94B8000C9402010C94000003
:1000D00013B81092620020910A01222359F46AE0B9
:1000E00070E00E94DB0080509F4FFC0180818BBB41
:1000F00084E010C0213089F464E670E00E94DB00E7
:100100006AE070E00E94DB0060507F4FFB0180815D
:100110008BBB88E0809362001EC0223079F468EEC9
:1001200073E00E94DB0064E670E00E94DB00605038
:100130007F4FFB0180818BBB84E00CC0233059F4DE
:1001400068EE73E00E94DB0060507F4FFB0180810E
:100150008BBB88E083B980910A018F5F83708093A5
:100160000A018FE99FE00197F1F700C000000895B0
:1001700011BA8FEF8ABB8CE082B98093610080B3A3
:100180008095807F803219F481E090E011C0803446
:1001900019F48AE090E00CC0803819F484E690E00D
:1001A00007C0803119F488EE93E002C080E090E04F
:1001B0000E946800E4CF97FB092E07260AD077FD3E
:1001C00004D00CD006D000201AF4709561957F4FB2
:1001D0000895F6F7909581959F4F0895AA1BBB1B34
:1001E00051E107C0AA1FBB1FA617B70710F0A61B37
:1001F000B70B881F991F5A95A9F780959095BC0158
:08020000CD010895F894FFCF31
:0A020800C0F9A4B0999282F880902A
:00000001FF
