:100000000C94C7000C94E7000C94E7000C94E700F4
:100010000C94E7000C9497010C94E7000C94E70013
:100020000C94E7000C94E7000C94E7000C94E700B4
:100030000C94E7000C94E7000C94E7000C94E700A4
:100040000C945F030C94E7000C94E7000C94E70019
:100050000C94E7000C94E7000C94E7000C94E70084
:100060000C94E7000C94E7000C94E7000C94E70074
:100070000C94E7000C94C9010C94E7000C94E70081
:100080000C94E7000C94E7000C94E7006E616E009E
:10009000696E660000407A10F35A00A0724E18098B
:1000A0000010A5D4E80000E87648170000E40B54DF
:1000B000020000CA9A3B000000E1F50500008096AE
:1000C0009800000040420F000000A08601000000E0
:1000D000102700000000E80300000000640000009A
:1000E00000000A00000000000100000000002C7663
:1000F000D888DC674F0823DFC1DFAE59E1B1B7967E
:10010000E5E3E453C63AE651997696E8E6C28426DA
:10011000EB898C9B62ED407C6FFCEFBC9C9F40F2B6
:10012000BAA56FA5F490055A2AF75C936B6CF96732
:100130006DC11BFCE0E40D47FEF520E6B500D0EDF7
:10014000902E0300943577050080841E080000205F
:100150004E0A000000C80C333333330F986E1283FD
:100160001141EF8D2114893BE65516CFFEE6DB18D1
:10017000D1844B381BF77C1D901DA4BBE424203296
:1001800084725E228100C9F124ECA1E53D2711248F
:100190001FBECFEFD0E1DEBFCDBF15E0A0E0B1E0E4
:1001A000E4E1FEE100E00BBF02C007900D92A23A2D
:1001B000B107D9F71BBE16E0A2EAB5E001C01D9257
:1001C000A135B107E1F70E94F9040C94080F0C94D3
:1001D0000000EFE9FFE03197F1F700C000008093E5
:1001E00002C00895809101C00895EFE9FFE03197C2
:1001F000F1F700C00000809300C00895809103C013
:100200000895882311F41A9A08951A980895129A55
:100210008FE59AEE0197F1F700C00000AFE9BFE06B
:100220001197F1F700C00000E0E0F0EC88E3808374
:10023000AFE9BFE01197F1F700C000008083AFE1A4
:10024000BEE41197F1F700C00000AFE9BFE01197DD
:10025000F1F700C0000080838FE891E00197F1F78B
:1002600000C00000AFE9BFE01197F1F700C0000047
:1002700088E080838FE99FE00197F1F700C00000DC
:1002800081E08083AFE9BFE01197F1F700C0000083
:1002900086E080838FE99FE00197F1F700C00000BE
:1002A0008CE080830895FC0108C0AFE9BFE011979E
:1002B000F1F700C00000809302C081918823A9F764
:1002C00008956295660F660F607C8068682B8FE9E1
:1002D0009FE00197F1F700C00000609300C008950F
:1002E000382F64E60E94AD0B805DAFE9BFE0119747
:1002F000F1F700C00000E2E0F0EC80832AE0892FF3
:10030000622F0E94AD0B805DAFE9BFE01197F1F75E
:1003100000C000008083832F0E94AD0B905DAFE989
:10032000BFE01197F1F700C00000908308951F927D
:100330000F920FB60F9211245F936F937F938F9359
:100340009F93AF93BF9380913206882341F484E05A
:100350008093320610924006109241060AC08091A6
:10036000320690E002966AE070E00E94CD0B809326
:10037000320610923B0610923A06BF91AF919F91C0
:100380008F917F916F915F910F900FBE0F901F9093
:1003900018951F920F920FB60F920BB60F92112461
:1003A0008F939F93EF93FF9380EB9CE3909389004F
:1003B00080938800809139068F5F80933906809101
:1003C00037068F5F809337068530D1F51092370658
:1003D000809145068F5F809345068C3389F5109296
:1003E0004506809143068F5F809343068C3341F529
:1003F00010924306809142068F5F809342068831B7
:10040000F9F410924206809146068F5F809346066B
:10041000E0913806F0E0EA57FA4F9081891781F4AD
:1004200010924606809138068F5F809338068C3094
:1004300039F410923806809144068F5F8093440609
:10044000FF91EF919F918F910F900BBE0F900FBE78
:100450000F901F901895282F1092330692B3906F2B
:1004600092BB94988FE99FE00197F1F700C00000DC
:1004700090B19095907F903141F0903241F090345E
:1004800041F0903841F080E007C081E005C082E093
:1004900003C083E001C084E092B3906F92BB959853
:1004A000EFE9FFE03197F1F700C0000090B19095BF
:1004B000907F903139F0903239F0903439F09038A3
:1004C00041F406C085E005C086E003C087E001C0B6
:1004D00088E092B3906F92BB9698EFE9FFE0319776
:1004E000F1F700C0000090B19095907F903139F005
:1004F000903239F0903439F0903841F406C089E0F8
:1005000005C08AE003C08BE001C08CE092B3906F1D
:1005100092BB9798EFE9FFE03197F1F700C0000038
:1005200090B19095907F903171F0903271F090344D
:1005300071F0903871F0882329F0821719F091E05A
:100540009093330608958DE0F8CF8EE0F6CF8FE0DC
:10055000F4CF80E1F2CF80E060E00E9461019091F1
:10056000440620913806809146064DB75EB7485044
:1005700050400FB6F8945EBF0FBE4DBFEDB7FEB74B
:10058000319640E051E0ADB7BEB712965C934E9302
:1005900011979283138230E02F5F3F4F358324837E
:1005A00090E00196978386830E94440D4DB75EB715
:1005B000485F5F4F0FB6F8945EBF0FBE4DBF80E03F
:1005C00061E00E94610180914206882319F18091C7
:1005D00042068D30F8F44091420630914306209156
:1005E00045068DB79EB708970FB6F8949EBF0FBE0D
:1005F0008DBFEDB7FEB7319687E191E0ADB7BEB7DD
:1006000012969C938E9311974283138234831582A2
:10061000268325C0809142066CE00E94AD0B292FF5
:10062000992309F42CE040914306309145068DB79B
:100630009EB708970FB6F8949EBF0FBE8DBFEDB75B
:10064000FEB731968EE291E0ADB7BEB712969C939D
:100650008E931197228313824483158236831782E7
:100660000E94440D4DB75EB7485F5F4F0FB6F894D8
:100670005EBF0FBE4DBF0895109200908295807F9F
:10068000582F516028E030E067FD02C0982F01C06C
:10069000952F47FD92609093009094609093009006
:1006A0009B7F90930090660F440F2150304061F77C
:1006B000986890930090977F9093009008951F9270
:1006C0000F920FB60F920BB60F9211242F933F93F8
:1006D0004F935F936F937F938F939F93AF93BF934A
:1006E000CF93DF93EF93FF9383E882BF80913A0625
:1006F00090913B06019690933B0680933A06E091D9
:100700003206F0E0EE56FA4F8081809300A0E0912F
:100710003206F0E0EE56FA4F8181809300B080916E
:100720003A0690913B0620E137E2B9010E94B90BED
:1007300060933C0680913A0690913B06B9010E9475
:10074000B90B28EE33E0B9010E94B90B60933D0666
:100750008FE080933E0680933F0680913206882387
:1007600011F580913A0690913B06B9010E94B90BB0
:10077000C9E1D0E0CE01861B970BEAE0F0E0BF01B3
:100780000E94B90B6093400680913A0690913B0617
:10079000B9010E94B90BCE01861B970BBF010E94C5
:1007A000B90B80934106E0913506F0E0E45CF94F27
:1007B000808190913506880F880F880F892B809350
:1007C0000080809135068F5F8093350666E00E9439
:1007D000AD0B9093350680913206882371F4809199
:1007E0003A0690913B0621E6883A9207C1F580913E
:1007F00032068E5F8093320632C08091320682309C
:10080000E9F080913206843021F080913206883000
:1008100089F480913A0690913B062BE0883B920741
:10082000F1F48091320690E002966AE070E00E9456
:10083000CD0B0FC080913206863089F480913A0644
:1008400090913B062FEA883C920749F4809132064A
:100850008E5F8093320610923B0610923A0680918A
:100860003206882351F480913606E0913606F0E096
:10087000E258FA4F608140E021C080913206823018
:1008800021F080913206843041F480913606E09167
:100890003606F0E0EA59FA4F0FC0809132068630F2
:1008A00021F080913206883059F480913606E0912B
:1008B0003606F0E0E259FA4F408160E00E943C03C6
:1008C000809136068F5F8093360687708093360658
:1008D000FF91EF91DF91CF91BF91AF919F918F9158
:1008E0007F916F915F914F913F912F910F900BBE30
:1008F0000F900FBE0F901F901895809100D0089513
:10090000809101D00895909100D097FDFCCF809305
:1009100000D00895909100D097FDFCCF809301D036
:100920000895882311F41B9A08951B980895CF9376
:10093000C82F87E0861B806B0E9483048C2F8295D2
:100940008F7080610E9483048C2F8F700E948304BB
:10095000CF910895CF93DF93C0E080E06C2F0E9489
:100960009704D0E080E00E948A04DF5FD038D1F79E
:10097000CF5FC83091F7DF91CF910895139A81E04E
:100980000E9491048FEF99E6A8E181509040A04029
:10099000E1F700C000008BEA0E9483048FEA0E9406
:1009A000830480E40E94830480EB0E94830480E13E
:1009B0000E94830480E00E94830480EC0E948304F0
:1009C00086EA0E94830480EA0E94830484EA0E94EB
:1009D000830483EA0E9483048FE20E94830481E2FD
:1009E0000E94830481E80E9483048FE10E948304B3
:1009F000089580E885BF8AE480936D0010926A00B4
:100A000022E02ABF80E189BF85E083BF83E882BFFF
:100A100081E087BF87B3806687BB8CE785BD14BC48
:100A200013BC83E080938A0080EB9CE39093890061
:100A30008093880084E080937D00789427B93E9A63
:100A400086E886B981B3806F81BB809161008F7029
:100A5000809361000E9407010E94BE040E94AA04C4
:100A6000D8E0ED2EF12C15C0802F60E00E94970495
:100A70000F5F1F4FF801EA59FE4F80810E948A04E0
:100A80000830110589F70894E108F108E114F10430
:100A900019F000E010E0E8CF89EE90E060E070E04F
:100AA0000E94CE0C81E00E94010110E000E0D0E045
:100AB0003BE3F32E4BE0D42EEE24E39457E1C52E16
:100AC000E3E6BE2EF3E46F2EF1E07F2EA4E54A2E7E
:100AD000A1E05A2EB2E0AB2E8C2F0E942B02C82F21
:100AE00080913306882309F4CEC0C63009F447C08C
:100AF000C73078F4C23011F1C33020F4C13009F0AE
:100B0000C2C017C0C43009F4BBC0C53009F0BBC0B7
:100B10001AC0CA3009F46DC0CB3020F4C93009F0D6
:100B2000B2C04BC0CD3009F481C0CE3009F0ABC0AB
:100B30008EC0002309F0A7C0DC27A5C0DD2309F083
:100B4000A2C00E25A0C0DD2361F080914406882359
:100B500031F08091440681508093440602C0B092E7
:100B60004406002309F48FC080914206882321F0B7
:100B70008091420681501BC0C092420684C0DD2392
:100B800061F080914406833630F4809144068F5F93
:100B90008093440602C010924406002309F473C0F7
:100BA00080914206873130F4809142068F5F8093B6
:100BB000420669C01092420666C0DD2361F0809152
:100BC0003806882331F080913806815080933806AA
:100BD00002C0D0923806002309F455C08091430624
:100BE000882321F08091430681501AC0F092430679
:100BF0004AC0DD2361F0809138068B3030F480915B
:100C000038068F5F8093380602C0109238060023A2
:100C1000D1F1809143068B3330F4809143068F5F8E
:100C20008093430630C0109243062DC0DD2359F156
:100C300080914606882319F08091460606C0E0910F
:100C40003806F0E0EA57FA4F8081815013C0DD2367
:100C5000D1F020914606E091380630E0F0E0EA5706
:100C6000FA4F808190E001972817390734F480917A
:100C700046068F5F8093460606C01092460603C064
:100C80001E2510923906112309F445C080913906BA
:100C90008A3108F010E080E060E00E94610100D03D
:100CA000EDB7FEB7728261820E94440D0F900F90E3
:100CB00080E061E00E94610100D000D000D02DB63C
:100CC0003EB60894211C311CEDB7FEB7528241821A
:100CD000B40180E090E00E94070720E030EC4FE78D
:100CE00054E40E949F0620E030E048EC52E40E9469
:100CF0009507DC01CB01F10182839383A483B58343
:100D00000E94440D8DB79EB706960FB6F8949EBF0D
:100D10000FBE8DBF02C00E94AB02A7B8369A349BAB
:100D2000FECF84B095B0E7B8369A349BFECF84B13D
:100D300095B1969587959695879583BDCDCE0CD028
:100D4000BAC0B2D040F0A9D030F021F45F3F19F022
:100D50009BC05111E4C09EC0BFD098F39923C9F342
:100D60005523B1F3951B550BBB27AA2762177307B1
:100D7000840738F09F5F5F4F220F331F441FAA1F65
:100D8000A9F333D00E2E3AF0E0E830D09150504025
:100D9000E695001CCAF729D0FE2F27D0660F771FD3
:100DA000881FBB1F261737074807AB07B0E809F0B5
:100DB000BB0B802DBF01FF2793585F4F2AF09E3F4A
:100DC000510568F061C0ABC05F3FECF3983EDCF3C7
:100DD000869577956795B795F7959F5FC9F7880FC3
:100DE000911D9695879597F90895E1E0660F771F15
:100DF000881FBB1F621773078407BA0720F0621BA6
:100E0000730B840BBA0BEE1F88F7E0950895E894F6
:100E100009C097FB3EF490958095709561957F4F42
:100E20008F4F9F4F9923A9F0F92F96E9BB279395F0
:100E3000F695879577956795B795F111F8CFFAF400
:100E4000BB0F11F460FF1BC06F5F7F4F8F4F9F4F31
:100E500016C0882311F096E911C0772321F09EE88F
:100E6000872F762F05C0662371F096E8862F70E0F5
:100E700060E02AF09A95660F771F881FDAF7880FCF
:100E80009695879597F9089597F99F6780E870E0A0
:100E900060E008959FEF80EC089500240A941616F0
:100EA000170618060906089500240A941216130658
:100EB000140605060895092E0394000C11F48823E6
:100EC00052F0BB0F40F4BF2B11F460FF04C06F5F02
:100ED0007F4F8F4F9F4F089557FD9058440F551FD8
:100EE00059F05F3F71F04795880F97FB991F61F0AC
:100EF0009F3F79F087950895121613061406551F23
:100F0000F2CF4695F1DF08C0161617061806991F8E
:100F1000F1CF86957105610508940895E894BB2783
:100F200066277727CB0197F908950BD0C4CFB5DF9B
:100F300028F0BADF18F0952309F0A6CFABCF112423
:100F4000EECFCADFA0F3959FD1F3950F50E0551F68
:100F5000629FF001729FBB27F00DB11D639FAA270E
:100F6000F00DB11DAA1F649F6627B00DA11D661F5D
:100F7000829F2227B00DA11D621F739FB00DA11D7E
:100F8000621F839FA00D611D221F749F3327A00D38
:100F9000611D231F849F600D211D822F762F6A2FD4
:100FA00011249F5750408AF0E1F088234AF0EE0F59
:100FB000FF1FBB1F661F771F881F91505040A9F766
:100FC0009E3F510570F060CFAACF5F3FECF3983E93
:100FD000DCF3869577956795B795F795E7959F5FCD
:100FE000C1F7FE2B880F911D9695879597F9089567
:100FF0002F923F924F925F926F927F928F929F9229
:10100000AF92BF92CF92DF92EF92FF920F931F9316
:10101000CF93DF93CDB7DEB765970FB6F894DEBFF9
:101020000FBECDBF4C017F876E87FC0117821682F1
:10103000838181FD04C076C34C855D8504C01E019B
:101040000894211C311CF4019381EE85FF8593FDEA
:10105000859193FF8191FF87EE87882309F45EC312
:10106000853241F493FD859193FF8191FF87EE874F
:10107000853259F490E0B4014C8B5D8B0E94180DC1
:101080004C895D895D874C87D7CFFF24DD2410E034
:101090001032B0F48B3269F08C3228F4803251F087
:1010A000833271F40BC08D3239F0803349F4116012
:1010B0002CC01260146029C0186027C0106125C0C0
:1010C00017FD2EC0282F20532A3098F416FF08C091
:1010D0008F2D880FF82EFF0CFF0CF80EF20E15C0A6
:1010E0008D2D880FD82EDD0CDD0CD80ED20E10629F
:1010F0000CC08E3221F416FD11C3106406C08C366C
:1011000011F4106802C0883659F4EE85FF8593FD0E
:10111000859193FF8191FF87EE87882309F0B8CFEF
:10112000982F9554933018F41061805E06C0982F64
:101130009556933008F0A2C11F7E16FD02C0E6E06E
:10114000FE2E1F73853611F4106406C0863611F426
:10115000106802C0F110FA9417FF07C0FBE3FF15F7
:1011600048F0EF2CE39427E00DC027E02F1530F076
:101170002F2D07C027E07CE3E72E04C027E067E0BF
:10118000F62EEE24CA0104969D878C87FA016081B1
:10119000718182819381A1010E2D0E94E00B5C017F
:1011A000C9802C2D30E0398B288BC0FE03C03889D4
:1011B00033FF06C011FD06C012FF06C000E205C0E5
:1011C0000DE203C00BE201C000E0888999898C70B0
:1011D0009070009709F43CC0002311F084E001C036
:1011E00083E08D1558F4D81A13FD09C080E290E011
:1011F000B4010E94180DDA94C9F701C0DD24002360
:1012000029F0802F90E0B4010E94180D888983FD99
:1012100005C030E9E32E30E0F32E11C02CE8E22EB9
:1012200020E0F22E0CC00115110509F0805290E06B
:10123000B4010E94180D0894E11CF11C04C0012F98
:1012400010E000711070F7018491882361F763C288
:1012500017FF0EC0EA0CF889F4FF04C08A818133BD
:1012600009F4EA941E144CF528E02E1548F12CC020
:1012700016FD2AC08F2D90E08A159B0544F03CEFA7
:10128000A3163FEFB3061CF0106801C0FA94FF20CC
:1012900049F0E2E0F0E0EC0FFD1FEF0DF11D808161
:1012A0008033A1F317FF10C0EF2CE3948F2D90E053
:1012B000A816B90644F4FA1807C0EE24E39404C053
:1012C00098E0E92E01C0FF2417FF07C01A141B0481
:1012D0003CF495012F5F3F4F05C025E030E002C090
:1012E00021E030E0002311F02F5F3F4FFF2029F075
:1012F0008F2D90E00196280F391F8D2D90E0281733
:10130000390714F4D21A01C0DD24612E7724C301F9
:1013100089709070009749F406C080E290E0B401B3
:101320000E94180DDA94DD20C1F7002329F0802FE8
:1013300090E0B4010E94180D63FC09C006C080E370
:1013400090E0B4010E94180DDA94DD20C1F717FF78
:1013500048C08501B7FE02C000E010E06624772493
:1013600095012E1931093B8B2A8B2501401A510A10
:10137000420C531C6F2D70E0EE24FF24E61AF70A8E
:101380003FEF0F3F130729F48EE290E0B4010E9473
:10139000180DA016B10654F02A893B892017310791
:1013A0002CF4F201E60DF71D818101C080E30150AC
:1013B00010400894611C711C0E151F052CF090E064
:1013C000B4010E94180DDCCF0A151B0541F49A8167
:1013D000963320F4953319F4388934FF81E390E093
:1013E00049C08A81813311F09FEEC92290E0B40197
:1013F0000E94180DFF2089F08EE290E0B4010E9457
:10140000180D12E0F101E10FF11D1F5F808190E0E6
:10141000B4010E94180DFA94A9F764FE03C085E494
:1014200090E002C085E690E0B4010E94180DB7FC80
:1014300005C0A114B10441F4C4FE06C0B094A19447
:10144000B108B3948DE201C08BE290E0B4010E9438
:10145000180D80E305C08F5FE6EFFFEFAE0EBF1EF5
:10146000FAE0AF16B104BCF790E0B4010E94180D89
:10147000C501C096B4010E94180D4DC1833631F0EC
:10148000833789F0833509F059C022C09A012E5F55
:101490003F4F3D872C87FA018081898381E0E82EC8
:1014A000F12C510113C09A012E5F3F4F3D872C87CD
:1014B000FA01A080B18016FF03C06F2D70E002C05A
:1014C0006FEF7FEFC5010E94C30C7C011F7714C032
:1014D0009A012E5F3F4F3D872C87FA01A080B18093
:1014E00016FF03C06F2D70E002C06FEF7FEFC501E4
:1014F0000E94B80C7C01106813FD1CC006C080E27D
:1015000090E0B4010E94180DDA948D2D90E0E81659
:10151000F906A8F30FC0F50117FD859117FF81911A
:101520005F0190E0B4010E94180DD110DA94089484
:10153000E108F108E114F10471F7EDC0843611F00F
:10154000893671F59A0117FF0AC02C5F3F4F3D871E
:101550002C87FA0180819181A281B3810BC02E5F1B
:101560003F4F3D872C87FA0180819181AA2797FD03
:10157000A095BA2F012F0F76B7FF08C0B095A095A0
:10158000909581959F4FAF4FBF4F0068BC01CD0133
:10159000A1012AE030E00E94560DE82EE21841C079
:1015A000853721F41F7E2AE030E020C0197F8F3676
:1015B000A9F0803720F4883509F0B0C00BC080371F
:1015C00021F0883709F0AAC001C0106114FF09C0DA
:1015D000146007C014FF08C0166006C028E030E0A1
:1015E00005C020E130E002C020E132E0CA0117FF6F
:1015F00009C004969D878C87FA0160817181828180
:10160000938108C002969D878C87FA016081718161
:1016100080E090E0A1010E94560DE82EE218012F13
:101620000F7706FF09C00E7FEF1430F404FF06C0E9
:1016300002FD04C00F7E02C01E2D01C01F2D802F91
:1016400090E004FF0CC0FE01EE0DF11D208120335F
:1016500011F4097E09C002FF06C01E5F05C086782E
:101660009070009709F01F5FA02EBB2403FD12C0ED
:1016700000FF0DC0FE2C1D1550F4FD0CF11A1D2DA0
:1016800006C080E290E0B4010E94180D1F5F1D1596
:10169000C0F304C01D1510F4D11A01C0DD24A4FE4E
:1016A0000FC080E390E0B4010E94180DA2FE1FC09D
:1016B000A1FE03C088E590E010C088E790E00DC06F
:1016C000C50186789070009791F0A1FC02C080E27D
:1016D00001C08BE207FD8DE290E0B4010E94180D7D
:1016E00006C080E390E0B4010E94180DFA94EF1454
:1016F000C0F3EA94F101EE0DF11D808190E0B40198
:101700000E94180DEE20A9F706C080E290E0B40117
:101710000E94180DDA94DD20C1F78ECCF401868189
:10172000978102C08FEF9FEF65960FB6F894DEBFEA
:101730000FBECDBFDF91CF911F910F91FF90EF9022
:10174000DF90CF90BF90AF909F908F907F906F90E1
:101750005F904F903F902F900895991B79E004C0BF
:10176000991F961708F0961B881F7A95C9F78095E0
:101770000895AA1BBB1B51E107C0AA1FBB1FA617D8
:10178000B70710F0A61BB70B881F991F5A95A9F72A
:1017900080959095BC01CD01089597FB092E0726F1
:1017A0000AD077FD04D0E5DF06D000201AF470954A
:1017B00061957F4F0895F6F7909581959F4F089515
:1017C000283008F027E03327DA01990F311D87FD13
:1017D000916000966105710539F432602E5F3D938A
:1017E00030E32A95E1F708959F3F30F08038710586
:1017F000610509F03C5F3C5F3D93913008F08068E3
:10180000911DDF93CF931F930F93FF92EF92192FA8
:10181000987F9695E92F96959695E90FFF27E251C7
:10182000FF4F99273327EE24FF24A701E7010590F6
:101830000894079428F4360FE71EF81E491F511D1F
:10184000660F771F881F991F0694A1F705900794CC
:1018500028F4E70EF81E491F561FC11D770F881F79
:10186000991F661F0694A1F70590079428F4F80EB7
:10187000491F561FC71FD11D880F991F661F771F4D
:101880000694A1F70590079420F4490F561FC71F2F
:10189000D81F990F661F771F881F0694A9F7849198
:1018A0001095177041F0D695C79557954795F794C1
:1018B000E7941A95C1F7E4E9F0E068941590159162
:1018C00035916591959105907FE27395E118F10A44
:1018D000430B560BC90BD009C0F7E10CF11E431F97
:1018E000561FC91FD01D7EF4703311F48A95E6CFC0
:1018F000E894015030F0080F0AF40027021708F4AA
:10190000202F2395022F7A3328F079E37D932A95AF
:10191000E9F710C07D932A9589F606949795679507
:10192000379517951794E118F10A430B560BC90B1D
:10193000D00998F023957E9173957A3308F070E37F
:101940007C932013B8F77E9170617D9330F083957E
:1019500071E37D9370E32A95E1F71124EF90FF90F6
:101960000F911F91CF91DF91992787FD9095089551
:10197000FC010590615070400110D8F7809590955A
:101980008E0F9F1F0895FC0161507040019001105F
:10199000D8F7809590958E0F9F1F08950F931F93F2
:1019A000CF93DF938C01EB01009711F42097C1F1E5
:1019B00081E090E06EE070E00E94B40DFC010097C1
:1019C00089F180E88383209771F0D387C28781E80B
:1019D00083838091470690914806009721F4F09305
:1019E0004806E093470601151105E1F011870087CD
:1019F0008381826083838091490690914A06009793
:101A000089F4F0934A06E093490680914B06909141
:101A10004C06009739F4F0934C06E0934B0602C055
:101A2000E0E0F0E0CF01DF91CF911F910F91089599
:101A30000F931F93CF93DF938C01EB018B8181FF79
:101A40001BC082FF0DC02E813F818C819D81281794
:101A5000390764F4E881F9810193F983E88306C0CA
:101A6000E885F985802F0995009731F48E819F8153
:101A700001969F838E8302C00FEF1FEFC801DF9195
:101A8000CF911F910F910895CF93DF93CDB7DEB71C
:101A9000FE013596619171918091490690914A06B7
:101AA000AF010E94F807DF91CF910895FA01AA27AC
:101AB000283051F1203181F1E8946F936E7F6E5F91
:101AC0007F4F8F4F9F4FAF4FB1E03ED0B4E03CD03F
:101AD000670F781F891F9A1FA11D680F791F8A1F22
:101AE000911DA11D6A0F711D811D911DA11D20D089
:101AF00009F468943F912AE0269F11243019305D43
:101B00003193DEF6CF010895462F4770405D419333
:101B1000B3E00FD0C9F7F6CF462F4F70405D4A3380
:101B200018F0495D31FD4052419302D0A9F7EACF48
:101B3000B4E0A6959795879577956795BA95C9F777
:101B400000976105710508959B01AC010A2E06946A
:101B50005795479537952795BA95C9F7620F731F23
:101B6000841F951FA01D08950F931F93CF93DF939C
:101B7000689F8001699F100D789F100D1124C80186
:101B80000E94D20DC82FD92F209731F08C2F60E002
:101B900070E0A8010E94010FCE01DF91CF911F914B
:101BA0000F910895CF93DF93AC018230910510F42B
:101BB00042E050E0E0914F06F091500620E030E026
:101BC000A0E0B0E024C08081918184179507D0F017
:101BD0008417950771F482819381109729F01396E9
:101BE0009C938E9312972CC09093500680934F062F
:101BF00027C02115310519F08217930718F49C01AD
:101C0000BD01EF0192818381DF01E92FF82F309729
:101C1000D1F621153105F9F0C901841B950B8430EB
:101C2000910580F48A819B816115710521F0FB018A
:101C30009383828304C09093500680934F06FE01E5
:101C4000329642C0FE01E80FF91F4193519302976B
:101C50009983888339C080914D0690914E060097F4
:101C600041F480919E0590919F0590934E0680933C
:101C70004D0620919C0530919D052115310541F4BB
:101C80002DB73EB78091A0059091A105281B390B77
:101C9000E0914D06F0914E06E217F30798F42E1BE3
:101CA0003F0B2417350770F0CA0102962817390731
:101CB00048F08E0F9F1F90934E0680934D064193E0
:101CC000519302C0E0E0F0E0CF01DF91CF910895A1
:101CD0000F931F93CF93DF939C01009709F48CC05F
:101CE000DC01129713961C921E92129760914F0678
:101CF000709150066115710589F48D919C91119731
:101D0000820F931F20914D0630914E0628173907F8
:101D100069F5B0934E06A0934D066EC0FB0140E0FE
:101D200050E001C0FC01EA17FB0730F48281938187
:101D3000AF010097B9F71FC0E9012297FB83EA833F
:101D400008811981C901800F911F8E179F0759F4CF
:101D500080819181800F911F02969983888382816F
:101D600093819B838A834115510529F4B0935006D2
:101D7000A0934F0641C0FA01B383A283C191D191D0
:101D8000EC0FFD1FAE17BF0781F4F901929182910C
:101D90008C0F9D1F0296DA0111969C938E9382817F
:101DA000938113969C938E931297E0E0F0E002C02B
:101DB000FB01BC01DB0112968D919C91139700975A
:101DC000B9F7CB0102962D913C911197820F931F89
:101DD00020914D0630914E062817390769F4309747
:101DE00029F41092500610924F0602C013821282FC
:101DF00070934E0660934D06DF91CF911F910F9126
:101E00000895DC0101C06D9341505040E0F7089502
:041E1000F894FFCF74
:101E14002020203230253032642F253032642F25A3
:101E240030326420202000202020414D20253032F3
:101E3400643A253032643A25303264202000202070
:101E440020504D20253032643A253032643A253012
:101E5400326400202054656D70657261747572651A
:101E64002020200020202020202530352E316620FF
:101E7400202020202000001F648484641F0000FFB1
:101E84009999999966000000000000000000000084
:101E9400000000000000000000000000000000003E
:101EA400000000000000000000000000000000002E
:101EB400000000000000000000000000000000001E
:101EC400000000000000000000000000000000000E
:1022740000000000000000047E7F7E747070002067
:102284007EFE7E2E0E0E0B0C0D0E0F10111200187A
:102294003C7E7E3C18001F1C1F1E1F1E1F1F1E1F7E
:1022A4001E1FEEE5EED9DDDA3BDBDDDA0000510678
:0222B400200008
:00000001FF
