:100000000C9446000C9466000C9466000C946600F8
:100010000C9466000C9466000C9466000C946600C8
:100020000C9466000C9466000C9466000C946600B8
:100030000C9466000C9466000C9466000C946600A8
:100040000C9466000C9466000C9466000C94660098
:100050000C9466000C9466000C9466000C94660088
:100060000C9466000C9466000C9466000C94660078
:100070000C9466000C9466000C9466000C94660068
:100080000C9466000C9466000C94660011241FBE4C
:10009000CFEFD0E1DEBFCDBF11E0A0E0B1E0E8EDF1
:1000A000F1E000E00BBF02C007900D92AA30B1074B
:1000B000D9F71BBE11E0AAE0B1E001C01D92AB3040
:1000C000B107E1F70E94B8000C94EA000C9400001C
:1000D00013B81092620020910A01222359F46AE0B9
:1000E00070E00E94C30080509F4FFC0180818BBB59
:1000F00084E010C0213089F464E670E00E94C300FF
:100100006AE070E00E94C30060507F4FFB01808175
:100110008BBB88E0809362001EC0223079F468EEC9
:1001200073E00E94C30064E670E00E94C300605068
:100130007F4FFB0180818BBB84E00CC0233059F4DE
:1001400068EE73E00E94C30060507F4FFB01808126
:100150008BBB88E083B980910A018F5F83708093A5
:100160000A0189EF90E00197F1F700C000000895BF
:100170008FEF8ABB8CE082B9809361008BED90E0B9
:100180000E946800FBCF97FB092E07260AD077FD57
:1001900004D00CD006D000201AF4709561957F4FE2
:1001A0000895F6F7909581959F4F0895AA1BBB1B64
:1001B00051E107C0AA1FBB1FA617B70710F0A61B67
:1001C000B70B881F991F5A95A9F780959095BC0188
:0801D000CD010895F894FFCF62
:0A01D800C0F9A4B0999282F880905B
:00000001FF
