:100000000C9446000C9466000C9466000C946600F8
:100010000C9466000C9466000C9466000C946600C8
:100020000C9466000C9466000C9466000C946600B8
:100030000C9466000C9466000C9466000C946600A8
:100040000C9468000C9466000C9466000C94660096
:100050000C9466000C9466000C9466000C94660088
:100060000C9466000C9466000C9466000C94660078
:100070000C9466000C9466000C9466000C94660068
:100080000C9466000C9466000C94660011241FBE4C
:10009000CFEFD0E1DEBFCDBF11E0A0E0B1E0E8E4FA
:1000A000F2E000E00BBF02C007900D92AA30B1074A
:1000B000D9F71BBE11E0AAE0B1E001C01D92AF303C
:1000C000B107E1F70E94FF000C9422010C9400009C
:1000D0001F920F920FB60F920BB60F9211246F93CF
:1000E0007F938F939F93EF93FF9383E882BF8091D9
:1000F0000B0190910C01019690930C0180930B01E0
:1001000080910B0190910C0184369105D1F41092ED
:100110000C0110920B0180910E018F5F80930E01F4
:1001200080910E018C3339F410920E0180910D01F3
:100130008F5F80930D0180910D018C3311F410922B
:100140000D0113B81092620080910A01882369F4AE
:1001500080910E016AE00E941601E92FF0E0E05064
:10016000FF4F80818BBB84E010C080910A018130F9
:1001700079F480910E016AE00E941601E82FF0E008
:10018000E050FF4F80818BBB88E08093620022C0EB
:1001900080910A01823069F480910D016AE00E9429
:1001A0001601E92FF0E0E050FF4F80818BBB84E027
:1001B00010C080910A01833069F480910D016AE0DA
:1001C0000E941601E82FF0E0E050FF4F80818BBBCA
:1001D00088E083B980910A018F5F80930A01837060
:1001E00080930A01FF91EF919F918F917F916F9181
:1001F0000F900BBE0F900FBE0F901F9018958FEFB2
:100200008ABB8CE082B98093610085E083BF83E87C
:1002100082BF81E087BF78948FEF91EEA4E0815098
:100220009040A040E1F700C00000F6CF991B79E0B4
:1002300004C0991F961708F0961B881F7A95C9F776
:0802400080950895F894FFCFAA
:0A024800C0F9A4B0999282F88090EA
:00000001FF
