:100000000C9446000C9466000C9466000C946600F8
:100010000C9466000C9466000C9466000C946600C8
:100020000C9466000C9466000C9466000C946600B8
:100030000C9466000C9466000C9466000C946600A8
:100040000C9425010C9466000C9466000C946600D8
:100050000C9466000C9466000C9466000C94660088
:100060000C9466000C9466000C9466000C94660078
:100070000C9466000C9466000C9466000C94660068
:100080000C9466000C9466000C94660011241FBE4C
:10009000CFEFD0E1DEBFCDBF11E0A0E0B1E0E2ECF8
:1000A000F3E000E00BBF02C007900D92AA30B10749
:1000B000D9F71BBE11E0AAE0B1E001C01D92AF303C
:1000C000B107E1F70E94BC010C94DF010C94000021
:1000D00017BAE5E6F0E080818E7F808380818260C0
:1000E000808380818460808386B390819B7F9083AE
:1000F0000895EFE9FFE03197F1F700C000009FEFAE
:1001000097BBE5E6F0E090819E7F908390819D7F94
:10011000908388BB80818460808380818B7F808393
:10012000089517BAE5E6F0E08081816080838081E0
:100130008260808380818460808386B390819B7F8E
:1001400090830895EFE1FEE43197F1F700C00000DD
:100150009FEF97BBE5E6F0E09081916090839081FE
:100160009D7F908388BB80818460808380818B7F2A
:10017000808308958FEF87BB87E0809364008FE5CD
:100180009AEE0197F1F700C0000088E30E94790021
:10019000AFE1BEE41197F1F700C0000088E30E94D0
:1001A00079008FEF91EEA4E081509040A040E1F7FC
:1001B00000C0000088E30E94790088E00E94790076
:1001C00081E00E94790086E00E9479008CE00E9424
:1001D00079000895CF93DF93EC0102C00E94A20042
:1001E00089918823D9F7DF91CF9108956295660FA1
:1001F000660F607C8068862B0E94790008950F93BB
:100200001F93CF93DF930F92CDB7DEB7082F64E62D
:100210000E94D301805D99830E94A2001AE0998117
:10022000892F612F0E94D301805D0E94A200802F40
:10023000612F0E94D301892F805D0E94A2000F9040
:10024000DF91CF911F910F9108951F920F920FB6DA
:100250000F920BB60F9211246F937F938F939F93FE
:10026000EF93FF9383E882BF80910B0190910C0183
:10027000019690930C0180930B0180910B0190915A
:100280000C0184369105D1F410920C0110920B01EF
:1002900080910E018F5F80930E0180910E018C334F
:1002A00039F410920E0180910D018F5F80930D0142
:1002B00080910D018C3311F410920D0113B810923E
:1002C000620080910A01882369F480910E016AE03E
:1002D0000E94D301E92FF0E0E050FF4F80818BBBFB
:1002E00084E010C080910A01813079F480910E0180
:1002F0006AE00E94D301E82FF0E0E050FF4F8081D8
:100300008BBB88E08093620022C080910A0182301A
:1003100069F480910D016AE00E94D301E92FF0E0B9
:10032000E050FF4F80818BBB84E010C080910A01B8
:10033000833069F480910D016AE00E94D301E82FB7
:10034000F0E0E050FF4F80818BBB88E083B9809163
:100350000A018F5F80930A01837080930A01FF91E5
:10036000EF919F918F917F916F910F900BBE0F90A6
:100370000FBE0F901F9018958FEF8ABB8CE082B94B
:100380008093610085E083BF83E882BF81E087BFFF
:1003900078948FEF91EEA4E081509040A040E1F777
:1003A00000C00000F6CF991B79E004C0991F961792
:1003B00008F0961B881F7A95C9F780950895F894E0
:0203C000FFCF6D
:0A03C200C0F9A4B0999282F880906F
:00000001FF
