:100000000C9446000C9466000C9466000C946600F8
:100010000C9466000C9466000C9466000C946600C8
:100020000C9466000C9466000C9466000C946600B8
:100030000C9466000C9466000C9466000C946600A8
:100040000C9466000C9466000C9466000C94660098
:100050000C9466000C9466000C9466000C94660088
:100060000C9466000C9466000C9466000C94660078
:100070000C9466000C9466000C9466000C94660068
:100080000C9466000C9466000C94660011241FBE4C
:10009000CFEFD0E1DEBFCDBF11E0A0E0B1E0EEE2F6
:1000A000F1E000E00BBF02C007900D92A030B10755
:1000B000D9F71BBE11E0A0E0B1E001C01D92A03055
:1000C000B107E1F70E9468000C9495000C940000C1
:1000D0008FEF84BB15BA80E182B924C025B3220F0B
:1000E00025BB873091050CF4A89AE7EAF1E6319731
:1000F000F1F700C0000001968F3091057CF380E09D
:1001000090E025B3269525BB873091050CF4AF9A76
:10011000E7EAF1E63197F1F700C0000001968F3071
:0E012000910579F780E090E0E7CFF894FFCFEB
:00000001FF
