:020000040800F2
:10000000B01E0020E5290008A1280008A328000848
:10001000A5280008A7280008A9280008000000005B
:10002000000000000000000000000000AB280008F5
:10003000AD28000800000000AF280008B128000823
:10004000392A00083D2A0008412A000881160008C4
:10005000492A00084D2A0008512A0008552A00089C
:10006000592A00085D2A0008612A0008652A00084C
:10007000692A00086D2A0008712A0008752A0008FC
:10008000792A00087D2A0008812A0008852A0008AC
:10009000B32800088D2A0008912A0008B528000816
:1000A000992A00089D2A0008A12A0008A52A00080C
:1000B0002D150008BD150008B12A0008B52A000852
:1000C000B92A0008BD2A0008C12A0008C52A00086C
:1000D000C92A0008F5100008D12A0008D52A00080E
:1000E000D92A0008DD2A0008B72800082DE9F04FBA
:1000F00093B0814617461D46029102AE002009E0EA
:1001000017F8011B0298C8470290002800F0CF8121
:10011000B069401CB061387808B9B069C9E12528D8
:10012000EED10020F0603061706101E040F001002C
:1001300017F8011F2029F9D023290ED02B2904D02C
:100140002D2906D030290CD00FE040F0020080B2FB
:10015000EEE740F0040080B2EAE740F0080080B229
:10016000E6E740F0100080B2E2E72A290DD12968C5
:100170000A1D2A6009683162002904D549423162AA
:1001800040F0040080B27F1C13E0002131620BE0DC
:10019000316A6FF00043994205D001EB810302EB15
:1001A0004301303931627F1C3A78A2F130010A29CB
:1001B000EED339782E291CBF4FF0FF31F1611ED1EB
:1001C00017F8011F2A2906D129680A1D2A60096823
:1001D000F1617F1C13E00021F1610BE0F1696FF028
:1001E0000043994205D001EB810302EB4301303912
:1001F000F1617F1C3A78A2F130010A29EED3B08474
:1002000039780FF2843000F0C3F908B117F8010B08
:100210008DF82E009DF82E00682804BF38786828D5
:1002200003D162208DF82E007F1C0CA8B0603A78B4
:10023000252A00F0B980582A30D0632A00F0A38024
:10024000642A18BF692A64D06F2A27D0702A1CD06C
:10025000732A04D0752A18BF782A1FD09DE0286819
:10026000011D296000687060F269002A03D500F062
:10027000ABF930619DE0002100F0C6F900281ABFFB
:100280007168401AF069306193E02868011D2960A7
:10029000006801900CA87060782170E09DF82E3005
:1002A0006C2B08BF286811D0712B08BF286802D0BA
:1002B0006A2B28680AD1C01D20F00700286001467B
:1002C00001F108002860D1E9000102E0011D296068
:1002D00000680190682B04BF01A8008803D0622B3E
:1002E00002D101A80078019096F82400000741D5BA
:1002F000019800283ED042F0200078283AD1F068DA
:100300000CA930234354401C411CF1600CA94254F9
:1003100030E09DF82E00622802D0682806D00BE05D
:100320002868011D296090F9000009E02868011D76
:100330002960B0F9000003E02868011D2960006809
:100340000190002805D5F068411CF1600CA92D230F
:100350000FE0B08C810705D5F068411CF1600CA955
:100360002B2306E0C00705D5F068411CF1600CA9FD
:1003700020234354F0680CA940187060114601A86E
:1003800000F09AF815E0F068411CF16029680A1D38
:100390002A600CAA096881540BE0F068411CF160E6
:1003A0000CA92523435422B1F068411CF1600CA92B
:1003B00042547F1C306AF168401A7169401A3169F1
:1003C000A0EB010896F82400400719D420208DF8EE
:1003D0000000B8F1010F13DB44464FF0010A0DF1A4
:1003E000000B1BF8011B0298C847029000285ED042
:1003F000B069401CB061BAF1010AF2D1641EECD1BF
:10040000F4680DF1300A5CB11AF8011B0298C84774
:10041000029000284BD0B069401CB061641EF3D13B
:1004200030208DF80000D6F814B0BBF1010F10DBBE
:1004300001240DF1000A1AF8011B0298C847029026
:10044000A8B3B069401CB061641EF4D1BBF1010BCC
:10045000EED13469D6F804A054B11AF8011B029801
:10046000C847029018B3B069401CB061641EF4D153
:1004700096F8240040077FF54EAE20208DF800004E
:10048000B8F1010FFFF647AE01240DF1000A1AF88A
:10049000011B0298C847029048B1B069401CB06186
:1004A000641EF4D1B8F101083FF435AEECE74FF02B
:1004B000FF3013B0BDE8F08FF0B4C2686F2908BFF9
:1004C000082405D041F02003782B14BF0A241024FF
:1004D000182305682E46642918BF692902D1002D0A
:1004E00048BF7642002E04BF056A002D09D1082CB2
:1004F00027D190F82810090723D517233021D1756B
:100500001FE05D1E2B46B6FBF4F704FB1766303682
:10051000F6B23A2E24BFA1F1510C6644AE543E000F
:1005200003D085689F18BD42EBD3082C09D190F801
:100530002810090705D5995C302902D05B1E3021AF
:100540009954C3F1180141619A188260026A91427C
:1005500007DA511A8161018D4FF6EF721140018562
:1005600010E0002A0ED590F8282002F01402102A7C
:1005700008D1426A0369D21A8369D21A531A012B2D
:10058000A8BF8361F0BC7047686C747A4C000000AF
:100590000278C9B28A421AB11CBF10F8012FF9E7DC
:1005A00018BF0020704750F8041B61B150F8042BAD
:1005B000D30744BFA9F101039A18002342F8043B72
:1005C000091FFAD1EFE7704700F10103810704D05A
:1005D00010F8011B89B18107FAD10268B2F101312B
:1005E000914311F0803F04BF50F8042FF6E710F854
:1005F000011B11B110F8011BFBE7C01A704702681C
:10060000531C036011707047C9B2830706D0521E95
:1006100022D310F8013B9942F7D11FE0083A13D3D7
:1006200002F1040241EA012141EA014150F8043B90
:10063000121F21BF4B40A3F1013C2CEA030C1CF01C
:10064000803FF3D0C9B2001F083210F8013B521EA0
:1006500028BF91EA030FF8D818BF0120401E704749
:10066000DFF8AC1300220A80DFF8A413098800B277
:100670008142F9DB7047DFF89C1364220A80DFF8BF
:10068000941364220A80DFF88C130988491EDFF86E
:100690008423118089B20029F5D1401E010009B2DE
:1006A0000029ECD1704780B5DFF864030088411C55
:1006B000DFF85C2311804FF6FF7180B2884203D1CE
:1006C000DFF84C0300210180DFF84C03B0F9000093
:1006D000411CDFF84423118000B20B280ADBCE480E
:1006E00000210180CD4890F90000002802D00020B0
:1006F00000F00AFACA48008800280AD0C4480088D6
:100700000A2190FBF1F201FB1200002801D100F058
:1007100086FA01BD80B5012000F011FB002820D031
:10072000012000F01FFB4021BE4800F095FBD0F1F6
:100730000102D2B24021BB4800F0A2FBBA4890F9B6
:100740000000002801D000F0B7F900F0E7FA00F04F
:10075000C0FAB649884204D1002000F0C5FA00F082
:10076000DDFA01BD80B5B24800F05DFCB14800F093
:100770005AFCB14800F057FCB04800F054FCB048B7
:1007800000F051FC01BD10B500240BE0AD4800782D
:100790005021AD4A01FB002010EB0410406800F02E
:1007A00042FC641C052C0ADAA64800785021A64AAF
:1007B00001FB002010EB041080680028E6D1A3485C
:1007C00000F031FC10BD10B500F0CDFC002801D1C7
:1007D000002012E090F90010002000E0401C0528E5
:1007E0000ADA984A12785023974C03FB024212EB24
:1007F00000129268002A01D1002010BD914A12789F
:100800005023914C03FB024212EB001292F90C2090
:1008100049B28A42E2D18B49097850228A4B02FBC5
:10082000013111EB0010806880470120E5E780B5B9
:1008300000F0E4FC00F02EFD00F060FD002000F070
:10084000F3FD8349012000F06BFE8249022000F095
:1008500067FE8149002000F00DFF00F07AFE0020C5
:1008600000F0BDFE00F0F5FB0120FFF7F9FE0020CF
:1008700000F028F900F075F9694801210180FFF7BF
:1008800071FF6B4800F0CFFB744800F0CCFB74485C
:1008900000F0C9FB734800F0C6FB012308225FF497
:1008A000E131714800F0C5FB614800F0BCFBFFF787
:1008B0006AFF00F04AFBFFF786FF002801D0FFF730
:1008C00062FF002000F0C0FDF5E780B55D48012122
:1008D0000170664800F0A7FB01BD80B559480221B0
:1008E0000170634800F09FFB01BD80B555480321AE
:1008F0000170604800F097FB01BD80B551480421AC
:1009000001705D4800F08FFB01BD80B5002000F054
:10091000D9F85A4800F087FB01BD80B5002000F0EF
:10092000E2F8574800F07FFB01BD80B54548002143
:100930000170544800F077FB01BD80B5524800F0CB
:1009400072FB524800F06FFB514800F06CFB3348DB
:100950000121017001BD80B54E4800F064FB4E4896
:1009600000F061FB2D480021017001BD80B53548C4
:1009700000210170494800F056FB01BD80B5484890
:1009800000F051FB00F08FFE464800F04CFB00F0F9
:1009900093F825480121017001BD80B5424800F05F
:1009A00042FB424800F03FFB1F480021017001BD9F
:1009B00080B52448002101703D4800F034FB01BDA2
:1009C000204800210170704738B500210022002323
:1009D0004FF46164B0FBF4F421004FF46164B0FBA8
:1009E000F4F504FB15043C25B4FBF5F422004FF4A8
:1009F0006164B0FBF4F504FB15003C24B0FBF4F596
:100A000004FB150003002B4800F013FB31BD000070
:100A1000961A0020981A0020941A0020AB1A002081
:100A20009A1A002000100140AC1A002080510100E9
:100A3000C0220008F4290008F023000868230008F9
:100A4000B0230008AA1A0020000000207029000826
:100A5000A70600085113000815070008842900089C
:100A60007426000820240008142300089829000890
:100A7000AC290008C0290008E027000890260008DB
:100A8000AC260008F8270008C82600085C250008E6
:100A9000782400081028000828280008E426000808
:100AA000402800087C250008582800080027000876
:100AB000702800081C27000880B500F00AF9FFF72D
:100AC00083FF01BD80B5C0B201280BD2C0B26D4911
:100AD00011EBC001898889B2C0B26A4A52F830006D
:100AE00000F0C8F901BD80B5C0B201280BD2C0B278
:100AF000644911EBC001898889B2C0B2614A52F8D9
:100B0000300000F0BAF901BD10B50400E4B2012CC8
:100B100026D2E4B25B4850F8340000F0A8F9E4B201
:100B2000584911EBC401B1F9041008420CD1E4B2E8
:100B3000544810EBC400818889B2E4B2514850F89F
:100B4000340000F097F90BE0E4B24E4810EBC4001B
:100B5000818889B2E4B24B4850F8340000F08DF936
:100B600010BD2DE9F84301240025002605275FF07C
:100B700000085FF00009444800F079F9804658F019
:100B8000FF08414689B2404800F083F93220FFF760
:100B900067FD0820050013E0E4B238EA040949467D
:100BA00089B2394800F075F9380000B2FFF758FDF6
:100BB000E4B26408761CF6B2EDB2AE42ECD36D1E20
:100BC000EDB2012D06D380242F4800F050F9804665
:100BD0000026F0E7002512E06400E4B238EA0409D8
:100BE000494689B2284800F054F9380000B2FFF7AE
:100BF00037FD761CEDB2F6B2B542EDD26D1CEDB20A
:100C0000082D0AD28024EC401F4800F030F98046BD
:100C1000E4B254EA08080026ECE7BDE8F18338B5F1
:100C200000240025184800F022F9040054F0FF04C5
:100C30001648007834EA00000500290089B21248FD
:100C400000F027F91248007800280DD10F480078ED
:100C5000C0B240080D4908700C480078C0070FD595
:100C60000B48012101700BE008480078400007495B
:100C7000087006480078000602D50548002101707A
:100C800031BD00000C2A000800100140E4010020E2
:100C9000A91A0020C9B2002905D03649098808439D
:100CA0003449088005E03349098831EA00003149B8
:100CB000088070473048008850F010002E490880A6
:100CC00070472D4800884FF6EF7108402A49088088
:100CD000704700202949098808002949098889B2F4
:100CE00080B250EA0140704710B50400FFF7E2FF00
:100CF000200C2349088021480480FFF7E2FF10BD43
:100D000010B50400FFF7D6FF200C10F00F001D49AE
:100D100008801D480480FFF7D4FF10BD16480088E6
:100D20008006FBD57047144800884FF6F7710840DD
:100D300011490880104800880007FBD57047002142
:100D40000D4A1288024011000A4A128892B20242E9
:100D500004D0C9B2002901D0012100E0002108001F
:100D6000C0B270470449098831EA0000024908808E
:100D70007047000000280040042800401C28004064
:100D800018280040082800400C280040F0B4002239
:100D90000026002400250023002791F803C01CF042
:100DA0000F0C624691F803C05FEACC6C01D58B78DA
:100DB0001A430B781B0621D00368002406E0CD7887
:100DC000482D02D10125A5400561641C082C14D2D0
:100DD0000125A5400E882E40AE42F6D1A5000F2673
:100DE00016FA05F7BB4312FA05F52B43CD78282DEB
:100DF000E5D10125A5404561E7E703600B884FF485
:100E00008074A34226D34368002420E0012514F116
:100E10000806B5400E882E40AE4217D1A5000F2619
:100E200016FA05F7BB4312FA05F52B43CD78282DAA
:100E300004D1012514F10806B5404561CD78482D4F
:100E400004D1012514F10806B5400561641C082C85
:100E5000DCD34360F0BC70470022C06880B2084217
:100E600001D0012200E000221000C0B27047C0682B
:100E700080B2704789B20161704789B241617047A1
:100E8000D2B2002A02D089B2016101E089B2416187
:100E9000704789B2C160704710B5C54800F0C4FC06
:100EA000C44800F0C1FC00240EE0C34810EB04105D
:100EB0004021C24A01FB0421C160BF4810EB04116C
:100EC000BC4800F075FC641C402CEEDBBC4800F014
:100ED000ABFCBC4800F0A8FC00240EE0BA4810EBC4
:100EE00004104021B94A01FB0421C160B64810EB4F
:100EF0000411B44800F05CFC641C0A2CEEDB4022B8
:100F00000021B34800F09BFC40220021B14800F0D2
:100F100096FC40220021B04800F091FCAF4800212F
:100F20004180AE4800210180AD480021018010BD04
:100F300010B5040089B2200000F025FD80212000BA
:100F400000F029FD0028F9D010BD70B5A648007842
:100F500001280ED070BD9E48215C89B2A148FFF7E0
:100F6000E7FF641CADB2AC42F5DB3100914800F004
:100F70001FFC8F4800F04DFC0600002EEAD035899A
:100F8000B6F90820F168924800F056FD0024E9E720
:100F90002DE9F0410D002800FFF716FB0400A4B274
:100FA000601E402190FBF1F0471C824800F044FC99
:100FB000B84236DB002617E07E4800F02AFC804667
:100FC000B8F1000F0FD040222900D8F80C0000F033
:100FD00033FD4020A8F808004146754800F0E8FBC2
:100FE000403C05F24005761C781E8642E4DB7148E1
:100FF00000F00FFC8046B8F1000F0CD0A4B2220024
:101000002900D8F80C0000F017FDA8F80840414668
:10101000674800F0CDFB72480088002801D1FFF737
:1010200094FFBDE8F08180B501006E48FFF7B0FF86
:1010300001BD0EB400B501AA01006C4800F004FD2A
:101040006A490022425469496648FFF7A1FF5DF8EA
:1010500010FB00B587B0FFF71FFF25208DF80400B7
:1010600000208DF8050000208DF8060001208DF885
:10107000070001A800F003FD4FF40070ADF8000078
:1010800003208DF8020018208DF8030000A95848AD
:10109000FFF77CFE4FF48060ADF8000004208DF86F
:1010A000030000A95248FFF771FE5FF4E13002909F
:1010B0000020ADF80C000020ADF80E000020ADF8C7
:1010C00010000020ADF814000C20ADF8120002A9A9
:1010D000444800F0BFFB012240F22551414800F096
:1010E00029FC01213F4800F017FC3F480121017015
:1010F00007B000BD38B540F225513A4800F059FC20
:10110000002820D001242F4800F096FB012815DB91
:101110002C4800F07EFB0500002D0FD0314800F078
:1011200036FC8DF80000A4B2220000A9E86800F0A7
:1011300083FC2C812900224800F03AFB40F2255123
:10114000284800F068FC31BD80B52649884208D1A6
:101150001B4800F071FB002801D1002002E00120B3
:1011600000E0002002BD10B5124800F065FB2149E7
:1011700008800F4800F060FB1F4908801948FFF7FE
:10118000E3FF002811D00E4800F043FB0400002CC0
:101190000BD0B4F90820E1680F4800F04DFC2100A5
:1011A000084800F005FB0C4800E0002010BD0000DE
:1011B0004C1A00205C1A0020E8110020E8010020F1
:1011C0006C1A00207C1A002068180020E815002006
:1011D000CC1900200C1A00208C190020881900203E
:1011E000A61A002000380140E5010020081900205F
:1011F00000080140A21A0020A41A002080B500F0C7
:1012000085FC5FF4803000F0B1FC00F0D9FC374978
:1012100008703648007801283BD1102000F022FEEB
:10122000022000F013FE002000F005FD002000F079
:1012300016FD4FF4806000F008FD5FF4E0115FF4EC
:10124000803000F0DAFC012000F0E2FC392000F0F0
:10125000B4FD0028FAD0022000F0DEFC00F0E6FC2D
:101260000828FBD101215FF0805000F092FD0121A0
:101270007D2000F07EFD01214FF4804000F079FDDB
:101280000121012000F085FD0121022000F081FDF7
:1012900001BDFEE780B541F2FF00ADF8000003207C
:1012A0008DF8020010208DF8030000A91048FFF708
:1012B0006DFD0F20ADF8000018208DF8030003200D
:1012C0008DF8020000A90B48FFF760FD4FF47C4049
:1012D000ADF8000002208DF8020010208DF8030008
:1012E00000A90548FFF752FD01BD0000A81A002023
:1012F0000010014000080140000C014080B50021B1
:101300005FF0006000F0EEFB4FF4C06000F0B2FB55
:1013100014208DF8000000208DF8010000208DF8C9
:10132000020001208DF8030000A800F0A8FB0320B4
:101330008DF8000002208DF8010000208DF80200D9
:1013400001208DF8030000A800F099FB01BD00000A
:1013500010B5102468480088411C674A118067490D
:101360000988674A32F8111080B2814235D262484A
:10137000002101800020FFF7B6FB42F21070FFF75A
:101380007AF90020FFF79EFB5E48007800280FD115
:101390005D480088401C5C49088058480088A4B219
:1013A000A0421AD255480088401C5449088014E0D5
:1013B0005448007801280DD15348504909880180CC
:1013C0004E480088012808D34C480088401E4B49ED
:1013D000088002E049480021018010BD10B50C00D2
:1013E000C0B2022802D2E4B2022C00D31BE0C0B289
:1013F000002805D14FF480514448FFF73EFD04E03A
:101400004FF480514148FFF735FDE4B2002C05D17F
:101410004FF480413D48FFF730FD04E04FF4804138
:101420003A48FFF727FD10BD80B5C0B2012805D1AD
:101430004FF480613548FFF720FD04E04FF48061F0
:101440003248FFF717FD01BD80B5C0B2042825D290
:10145000C0B2002803D002280BD005D30EE0012132
:101460000020FFF7BBFF0DE000210120FFF7B6FFD2
:1014700008E000210020FFF7B1FF03E00121012077
:10148000FFF7ACFF1F48002101701F4800210180B9
:101490000120FFF7C9FF012000F0D4F801BD80B59D
:1014A000184800210170184800880128FBD232201A
:1014B000FFF7D6F80020FFF7B7FF002000F0C2F8D2
:1014C00001BD80B50020FFF7BFFF1148FFF7ABFD5E
:1014D00001BD80B5FFF7E3FF0E48FFF7A4FD01BD96
:1014E00080B50D48FFF79FFD01BD80B5FFF768FA95
:1014F0000A48FFF798FD01BD9E1A0020A01A00209F
:1015000090010020AD1A00209C1A0020000C014020
:101510009C250008BC250008A0240008DC25000844
:10152000C0B2514A12EBC0004160704780B5012142
:101530005FF0804000F022FD01215FF0804000F06C
:1015400021FD4948C068002802D04748C06880474C
:1015500001BD00B585B01C208DF8000000208DF87D
:10156000010000208DF8020001208DF8030000A882
:1015700000F085FA42F21070ADF808004720ADF88F
:1015800004000020ADF80A000020ADF8060001A913
:101590005FF0804000F078FC01215FF0804000F0B7
:1015A000DFFC01215FF0804000F0C0FC012201213E
:1015B0005FF0804000F0C8FC05B000BD80B501219F
:1015C0002A4800F0DBFC0121284800F0DBFC26481B
:1015D0004069002802D024484069804701BD1FB5FA
:1015E00004001D208DF8000000208DF8010000206F
:1015F0008DF8020001208DF8030000A800F03FFAEA
:1016000042F21070ADF808004720ADF80400002049
:10161000ADF80A000020ADF8060001A9134800F05B
:1016200033FC0121114800F09BFCE4B2012C08D1ED
:1016300001210E4800F07AFC012201210B4800F044
:1016400083FC1FBD10B50400094800210180210062
:10165000C9B2064800F06AFC2200D2B20121034858
:1016600000F072FC10BD0000B0010020000400403A
:101670009E1A0020C0B2274A12EBC000416070479A
:1016800080B501215FF0804000F078FC01215FF01F
:10169000804000F077FC1F484068002802D01D48B9
:1016A0004068804701BD80B5042000F085FC4AF207
:1016B000A55188420FD01848FFF7B5FC00F036F866
:1016C0001648FFF7B0FC00F05CF84AF2A551042080
:1016D00000F064FC1BE07B2000F06FFB002803D0CF
:1016E0000F48FFF7A0FC07E07A2000F066FB002817
:1016F00002D00C48FFF797FC0B48FFF794FCFFF76C
:1017000012FB01210120FFF7C5FAFFF707FB00F0EC
:1017100076FB01BD8C1A0020FC25000888280008F3
:10172000C82400081C260008EC24000880B501210C
:101730005FF0C05000F02DFB012000F04DFC00F0E8
:1017400025FC012000F096FA412000F036FB00282D
:10175000FAD04FF4807000F0A2FA012000F0A5FA50
:10176000FFF7E1FAFFF7DAFA01210120FFF792FA19
:10177000FFF7D4FA47F6FF70FFF7C2FAFFF7CEFA89
:1017800001BD80B5FFF7CAFA00F005F8FFF7ACFA23
:10179000FFF7C4FA01BD10B40A200B2100224FF458
:1017A00061633C24614303FB0010101810BC7047B8
:1017B00002684A6000220A600268002A02D00268B9
:1017C000116000E0416001608189491C818170479E
:1017D0004A68002A03D04A680B68136001E00A686F
:1017E00042600A68002A03D00A684968516001E033
:1017F000496801608189491E8181704710B504687C
:10180000002C01D1002003E02100FFF7E1FF2000C0
:1018100010BD10B54468002C01D1002003E0210068
:10182000FFF7D6FF200010BD10B504002000FFF721
:10183000E5FF0028FAD110BDB0F90C00704710B5D3
:10184000040010000A000100200000F0CBFB200083
:1018500010BD0000F0B585B004000D00002000218F
:10186000002200230026AF89002F2600208A4CF694
:10187000FF710840E98808432082A0894EF6F311E1
:101880000840A9882A8911436A8911430843A08125
:10189000A08A4FF6FF410840A9890843A08200A80A
:1018A00000F007FA1B48864201D1039900E0029933
:1018B000A089000407D5192000FB01F02968490020
:1018C000B0FBF1F206E0192000FB01F02968890065
:1018D000B0FBF1F26420B2FBF0F0000101096423D7
:1018E00003FB1123A189090408D5D90032316422F0
:1018F000B1FBF2F111F00701084307E019013231A1
:101900006422B1FBF2F111F00F010843208105B010
:10191000F0BD000000380140C9B2002904D081891F
:1019200051F40051818104E081894DF6FF7211402C
:1019300081817047F0B4002300240025002640F682
:101940006A1789B2B94206000800C0B24309DBB287
:1019500089B211F01F04012010FA04F5012B01D106
:101960000C3604E0022B01D1103600E01436D2B25E
:10197000002A03D030682843306002E03068A84372
:101980003060F0BC7047C905C90D81807047808800
:10199000C005C00D704700224FF4007389B2994210
:1019A0000088084201D0012200E000221000C0B2ED
:1019B000704770B4002300240025002240F66A1608
:1019C00089B2B1420A00D2B25509EDB289B211F022
:1019D0001F04012212FA04F4012D02D1828914405D
:1019E00006E0022D02D1028A144001E0828A1440EE
:1019F00089B20B0A9BB2012111FA03F3008803405C
:101A0000002C03D0002B01D0012200E000221000A6
:101A1000C0B270BC704710B40022002340F66A14B4
:101A200089B2A14289B20A0A012111FA02F39BB2DA
:101A3000D943018010BC704710B50400200000F0AD
:101A400005FB200010BD000016B50446009401AB54
:101A50000A4600A9064878441630FEF747FB00996D
:101A600000220A7000285CBF0098001B16BD00BF52
:101A70008FEBFFFF1E4908431E490860704710B4F2
:101A8000002100220F23C478002C1ED019490968B8
:101A900011F4E061D1F5E061090AD1F10402CB4013
:101AA0004178914082781A40114309010278124B23
:101AB000D15401784911114A0123007810F01F0018
:101AC00013FA00F042F821000AE0017849110C4AAB
:101AD0000123007810F01F0013FA00F042F82100F3
:101AE00010BC7047074A1140084307490860704717
:101AF0000000FA050CED00E000E400E000E100E089
:101B000080E100E080FFFF1F08ED00E0DFF8FC024D
:101B1000006850F00100DFF8F4120860DFF8F0020E
:101B20000068DFF8F0120840DFF8E4120860DFF820
:101B3000DC020068DFF8E0120840DFF8D01208602D
:101B4000DFF8C802006830F48020DFF8C0120860B7
:101B5000DFF8BC02006830F4FE00DFF8B412086061
:101B6000DFF8B8025FF41F0101607047DFF89C12D4
:101B7000096831F48031DFF894221160DFF88C12AB
:101B8000096831F48021DFF884221160B0F5803FCC
:101B900003D0B0F5802F09D011E0DFF870020068A3
:101BA00050F48030DFF86412086008E0DFF85C026F
:101BB000006850F4A020DFF854120860FFE7704777
:101BC00080B50020009000200021312000F0F5F8C1
:101BD00001000098401C00900098B0F5A06F02D062
:101BE000C9B20029F1D0312000F0E7F8002801D077
:101BF000012000E00020C0B202BD0022844B1B681F
:101C00001A0032F47C120843024381480260704794
:101C10008349C0B20860704700217D4A12681100F4
:101C20008908890001437A48016070477848006854
:101C300010F00C0070470021754A1268110031F055
:101C4000F00101437248016070470021704A126838
:101C5000110031F4E06101436D48016070470021DB
:101C60006B4A1268110031F4605151EAC0016848B2
:101C7000016070476B4900220A706A4900220A70AD
:101C8000C0B2012802D0042804D007E06548012131
:101C9000017003E0634805210170FFE77047614967
:101CA000096808435F49086070475F49C0B208602F
:101CB000704730B40022002100230024544D2D68C9
:101CC00015F00C052A00002A04D0042A05D0082AA1
:101CD00006D021E05549016020E0544901601DE033
:101CE0004B49096811F47011494A126812F48033A3
:101CF000890C891C002B03D14D4A514301600AE035
:101D0000434A1268920303D5494A5143016002E0F5
:101D1000464A5143016001E0444901603C49096879
:101D200011F0F00212094349545C0168E14041603E
:101D30003749096811F4E062120A3E49545C41686F
:101D4000E14081603249096811F46052D20A394990
:101D5000545C4168E140C1602D49096811F440427A
:101D6000920B3549545CC168B1FBF4F1016130BCA0
:101D70007047C9B2002905D03049096808432F4986
:101D8000086005E02D49096831EA00002B49086028
:101D90007047C9B2002905D0294909680843284974
:101DA000086005E02649096831EA00002449086016
:101DB00070472449C0B20860704710B40022002365
:101DC0000021C0B24409E4B22200012A02D10F4925
:101DD0000B6806E0022A02D112490B6801E01A4999
:101DE0000B68C0B210F01F0201209040034201D0E6
:101DF000012100E000210800C0B210BC7047124869
:101E0000006850F080701049086070470010024070
:101E1000041002400000FFF8FFFFF6FE0810024029
:101E200060004242201002403C04424200127A000C
:101E300000093D00D0010020E00100201810024000
:101E40001C10024040044242241002400021DFF8EE
:101E500034201268110011F038010143DFF824002A
:101E600001607047DFF81C10096831F01001DFF8DD
:101E700014201160DFF80C1009680843DFF8041023
:101E80000860704700200240002203881A001D4BA2
:101E900098420ED0214B98420BD0B0F1804F08D021
:101EA000194B984205D0194B984202D0184B9842D2
:101EB00004D14FF68F731A404B881A43154B984242
:101EC00007D0154B984204D04FF6FF431A40CB88F9
:101ED0001A4302808A8882850A880285094A9042CC
:101EE0000BD00E4A904208D00D4A904205D00D4AC0
:101EF000904202D00C4A904201D1097A0186012118
:101F000081827047002C014000040040000800401E
:101F1000000C00400010004000140040003401405C
:101F2000004001400044014000480140C9B200297E
:101F300004D0018851F00101018004E001884FF6CE
:101F4000FE72114001807047D2B2002A03D082890C
:101F50001143818103E0828932EA01018181704766
:101F6000C9B2002904D0018851F08001018004E049
:101F700001884FF67F7211400180704789B2C943D2
:101F80000182704789B2C9430182704780B5012040
:101F9000FFF70FFF0020FFF70CFF01BD81B000220B
:101FA00000920C4A0092009A80B28018009000982B
:101FB00089B2016001B0704781B0002100910549EC
:101FC0000091009980B2401800900098008801B0FC
:101FD00070470000006C00400149C0B208607047C3
:101FE00020000E4262F30F2262F31F42401810F0ED
:101FF000030308D0C91A1FD3DB0748BF00F8012D1F
:1020000028BF20F8022D130030B4144615461039AD
:1020100028BF20E93C00FAD8490728BF20E90C0076
:1020200048BF40F8042D890028BF20F8022D48BF82
:1020300000F8012D30BC7047C91818BF00F8012DF9
:10204000CB0728BF00F8012D7047000062B38B0753
:1020500008D0521E11F8013B00F8013B00F024802B
:102060008B07F6D1830740F0208000BF103A07D3DA
:1020700030B4B1E83810103AA0E83810F9D230BCCA
:10208000530724BFB1E80810A0E8081044BF51F876
:10209000043B40F8043BD20724BF31F8022B20F860
:1020A000022B44BF0B7803707047083A07D3B1E89E
:1020B0000810083A40F8043B40F804CBF7D2530725
:1020C000E4E7000080B54F48006850F001004D493A
:1020D00008604D4800684D4908404B490860494830
:1020E00000684B490840474908604648006830F49A
:1020F0008020444908604448006830F4FE004249AA
:10210000086044485FF41F01016000F005F8424890
:102110005FF00061016001BD80B500F001F801BD14
:1021200082B000200190002000903648006850F4F2
:102130008030344908603348006810F40030009063
:102140000198401C01900098002803D10198B0F537
:10215000A06FF0D12B480068800302D501200090C9
:1021600001E0002000900098012847D12B4800682A
:1021700050F0100029490860284800688008800055
:10218000264908602548006850F00200234908608D
:102190001D481D49096801601B481B490968016009
:1021A0001948006850F480601749086016480068B4
:1021B00030F47C10144908601348006850F4E810AB
:1021C000114908600F48006850F080700D490860A0
:1021D0000C4800688001FBD50B480068800880002F
:1021E000094908600848006850F002000649086084
:1021F0000548006810F00C000828F9D102B07047BB
:102200000000000000100240041002400000FFF82F
:10221000FFFFF6FE0810024008ED00E0002002403B
:102220002DE9F04100F10801026801EB82024368E8
:102230005808400002EB80000024002526460127B4
:102240000EE0F44518BFAC4208D014F8018B0CF82E
:10225000018B761E36B2002EF3D50127F44513D13B
:10226000824201D1BDE8F08152F804CB5FEAC37E1F
:1022700048BFCC4452F804EBE644EFE70C6864181E
:10228000091D51F8045B2D19AC42F7D05FB114F968
:10229000016B002705E00C686418091D51F8045B08
:1022A0002D19AC42F7D0002ED4D514F8018BF4458B
:1022B000D4D00CF8018B761C36B2002EF7D4CCE7C4
:1022C0000D0A2A2A2A2A2A2A2A2A2A2A2A2A2A2AAB
:1022D0002A2A2A2A2A2A2A2A2A2A2A2A2A2A2A2A5E
:1022E0002A2A2A2A2A2A2A2A2A2A2A2A2A2A2A2A4E
:1022F0002A2A2A2A2A2A2A2A2A2A2A2A2A2A2A2A3E
:102300002A2A2A2A2A2A2A2A2A2A2A2A2A2A2A0D4A
:102310000A0000004261756452617465203D202509
:10232000642C2044617461626974203D20256462DC
:1023300069742C2053746F7042697473203D20259A
:10234000642C20506172697479203D206E6F2C20BE
:10235000466C6F77436F6E74726F6C203D206E6FAA
:102360006E650D0A0000000048434C4B285359533A
:10237000434C4B29203D20384D487A2C2050434C6B
:102380004B32203D2048434C4B2C2050434C4B318A
:10239000203D2048434C4B2F322C20414443434C9A
:1023A0004B203D2050434C4B322F320D0A00000091
:1023B000504C4C434C4B203D20384D487A202F2028
:1023C00031202A2039203D2037324D487A2C2055A3
:1023D0005342434C4B203D20504C4C434C4B202F00
:1023E0002032203D2034384D487A0D0A000000008C
:1023F00048534528486967682053706565642045DF
:10240000787465726E616C20636C6F636B207369A6
:10241000676E616C2920456E61626C650D0A000073
:102420005374617274205553415254312073657254
:1024300076696365206F6E206D6F646520696E74C8
:102440006572727570742E0D0A00000010B508498F
:1024500079441C31074C7C441A34A14206D0081D33
:102460000A68511888470146A142F8D110BD00BF43
:10247000A0000000C800000055736572206C656400
:1024800020626C696E6B20737461727420312073EA
:1024900065636F6E6420706572696F640D0A000079
:1024A0000D0A736572766963655F737465705F6D3D
:1024B0006F746F725F6372756973655F746573744F
:1024C00028290D0A000000000D0A0A20506F7765C8
:1024D00072204F6E205265736574206F636375724E
:1024E0007265642E2E2E2E0D0A0000000D0A204E5D
:1024F0006F206E65656420746F20636F6E66696718
:10250000757265205254432E2E2E2E0D0A000000A7
:1025100097E0FFFFC8180000E8010020000000005D
:1025200001FDFFFF0200000002000000B8050000EE
:102530006101000000000020E60100005B335D2027
:1025400053746570204D6F746F7220637275697378
:102550006520746573740D0A000000005374617285
:10256000742074696D6572322031306D736563203B
:10257000706572696F642E0D0A00000053746172F9
:102580007420525443205365727669636520746FDA
:1025900020756172742E0D0A000000000D0A73652B
:1025A00072766963655F737465705F6D6F746F7267
:1025B0005F737461727428290D0A00000D0A736537
:1025C00072766963655F737465705F6D6F746F7247
:1025D0005F73746F7028290D0A0000000D0A73657F
:1025E00072766963655F737465705F6D6F746F7227
:1025F0005F6578697428290D0A0000000D0A0A2019
:10260000525443206E6F742079657420636F6E6638
:102610006967757265642E2E2E2E00000D0A0A2041
:1026200045787465726E616C205265736574206FB5
:10263000636375727265642E2E2E2E005B315D20F1
:1026400054494D32207469636B74696D65207465FB
:1026500073740D0A000000005B785D204578697492
:102660002053746570204D6F746F7220746573749D
:102670000D0A0000496E697469616C697A652067AA
:1026800070696F20736572766963652E0D0A0000AC
:102690000D0A736572766963655F757365725F6C49
:1026A00065645F6F6E28290D0A0000000D0A7365CE
:1026B00072766963655F757365725F6C65645F6F81
:1026C000666628290D0A00000D0A73657276696333
:1026D000655F74696D325F7469636B74696D6528D9
:1026E000290D0A000D0A73736572766963655F745C
:1026F000696D65725F6578697428290D0A000000AC
:1027000053746F7020525443205365727669636529
:1027100020746F20756172742E0D0A000D0A5469C1
:102720006D653A2025302E32643A25302E32643AD7
:1027300025302E32640000005B345D2053746570D8
:10274000204D6F747220746573740D0A00000000D0
:102750005B325D2054494D3220626C696E6B207390
:10276000746F700D0A0000005B785D204578697415
:102770002074696D657220746573740D0A00000021
:102780005B315D2052544320736572766963652026
:1027900073746172740D0A005B325D2052544320E1
:1027A000736572766963652073746F700D0A00003B
:1027B0005B315D2053746570204D6F746F722073B0
:1027C000746172740D0A00005B325D205374657091
:1027D000204D6F746F722073746F700D0A000000CB
:1027E0000D0A736572766963655F737465705F6DFA
:1027F0006F746F720D0A00000D0A7365727669635B
:10280000655F6C65645F6578697428290D0A00004E
:102810000D0A736572766963655F74696D325F7303
:10282000746F7028290D0A0055736572206C6564F9
:1028300020626C696E6B2073746F702E0D0A00003D
:102840000D0A736572766963655F7274635F737492
:1028500061727428290D0A000D0A73657276696326
:10286000655F7274635F73746F7028290D0A0000CE
:102870000D0A736572766963655F7274635F65786C
:10288000697428290D0A00000D0A20525443206360
:102890006F6E666967757265642E2E2E2E0D0A00A6
:1028A0007047FEE7FEE7FEE7FEE7704770477047B8
:1028B000704770477047704700F009F8002801D052
:1028C000FFF7C4FD0020FDF7B2FF00F002F8012081
:1028D000704700F001B800000746384600F002F8E3
:1028E000FBE7000080B5C046C046024A1100182030
:1028F000ABBEFBE7260002005B315D204C45442067
:10290000746573746767670D0A0000005B325D20B1
:1029100054494D455220746573740D0A000000003F
:102920005B315D2055736572206C6564206F6E0DA0
:102930000A0000005B325D2055736572206C65648F
:10294000206F66660D0A00005B785D20457869742B
:10295000206C656420746573740D0A005B785D20DB
:10296000457869742052544320746573740D0A00CD
:102970000D0A0D0A53656C656374206D656E7520D4
:102980003F20000055736572206C65642028206F1D
:102990006E20290D0A0000000D0A736572766963C6
:1029A000655F6C656428290D0A0000000D0A7365D7
:1029B00072766963655F74696D657228290D0A0016
:1029C0000D0A736572766963655F72746328290DF9
:1029D0000A0000005B335D20525443207465737419
:1029E0000D0A00000148804701480047C520000843
:1029F000012A000847535220323031332E0D0A008D
:102A0000C046C046C046C046FFF756FF0010014012
:102A100000100000FFF744BFFFF743BFFFF742BFBE
:102A2000FFF741BFFFF740BFFFF73FBFFFF73EBFD4
:102A3000FFF73DBFFFF73CBFFFF7FEBFFFF7FEBF4D
:102A4000FFF7FEBFFEF71CBEFFF7FEBFFFF7FEBF9E
:102A5000FFF7FEBFFFF7FEBFFFF7FEBFFFF7FEBFAA
:102A6000FFF7FEBFFFF7FEBFFFF7FEBFFFF7FEBF9A
:102A7000FFF7FEBFFFF7FEBFFFF7FEBFFFF7FEBF8A
:102A8000FFF7FEBFFFF7FEBFFFF713BFFFF7FEBF65
:102A9000FFF7FEBFFFF70EBFFFF7FEBFFFF7FEBF5A
:102AA000FFF7FEBFFFF7FEBFFEF740BDFEF786BD96
:102AB000FFF7FEBFFFF7FEBFFFF7FEBFFFF7FEBF4A
:102AC000FFF7FEBFFFF7FEBFFFF7FEBFFEF712BB2B
:102AD000FFF7FEBFFFF7FEBFFFF7FEBFFFF7FEBF2A
:102AE000FFF7E9BE0001FD0008F8280008CB080048
:102AF0000831FD000002FD00080C290008DB080079
:102B00000832FD000003FD0008D4290008EB08008E
:102B10000833FD000004FD000838270008FB08000A
:102B20000834FD000005ED0008202900080B09000D
:102B30000831FD000001FD0008342900081B0900D0
:102B40000832FD000002FD0008482900082B09009A
:102B50000878FD000003F1000003ED00083C2600AA
:102B6000083B09000831FD000001FD000850270066
:102B7000085709000832FD000002FD000868270020
:102B8000086D09000878FD000003F1000003ED0066
:102B900008802700087D09000831FD000001FD00C4
:102BA00008982700089B09000832FD000002FD007C
:102BB000085C290008B109000878FD000003F10055
:102BC0000003ED0008B0270008C314000831FD0021
:102BD0000001FD0008C8270008D314000832FD00DA
:102BE0000002FD00083C250008E114000833FD0048
:102BF0000003FD000858260008EB14000878FD00CB
:102C00000004F1001E32003200280028001E001EC1
:102C100000140014000A000A000500050004000466
:102C200000010001F7000001F9000002F9000003B3
:102C3000F50011010203040102030406070809025A
:082C40000406088001000000F9
:0400000508002A01C4
:00000001FF
