:020000040800F2
:10000000C01E00200D680008C9660008CB66000805
:10001000CD660008CF660008D16600080000000029
:10002000000000000000000000000000D36600088F
:10003000D566000800000000D7660008D9660008F1
:1000400061680008656800086968000819380008D8
:100050007168000875680008796800087D68000804
:100060008168000885680008896800088D680008B4
:100070009168000895680008996800089D68000864
:10008000A1680008A5680008A9680008AD68000814
:10009000DB660008B5680008B9680008DD6600087E
:1000A000C1680008C5680008C9680008CD68000874
:1000B000D926000869270008F1270008DD68000834
:1000C000E1680008E5680008E9680008ED680008D4
:1000D000F1680008DD300008F9680008FD680008D4
:1000E0000169000805690008DF660008EB77000079
:1000F000AC3100001D260000212000004F1C000034
:100100009819000089170000E815000093140000FA
:100110007513000082120000AF110000F6100000FD
:1001200052100000BF0F00003B0F0000C30E000084
:10013000550E0000F10D0000940D00003E0D000072
:10014000EE0C0000A40C00005E0C00001D0C000072
:10015000DF0B0000A50B00006F0B00003B0B000045
:100160000A0B0000DB0A0000AF0A0000840A00004E
:100170005C0A0000350A0000100A0000EC090000CB
:10018000CA090000A90900008A0900006C090000E2
:100190004E0900003209000017090000FD080000A8
:1001A000E3080000CB080000B30800009C08000032
:1001B00085080000700800005A080000460800008A
:1001C000320800001F0800000C080000FA070000B9
:1001D000E8070000D6070000C5070000B5070000CB
:1001E000A5070000950700008607000077070000BC
:1001F000680700005A0700004C0700003E07000097
:100200003107000024070000170700000A0700005C
:10021000FE060000F2060000E6060000DB06000015
:10022000CF060000C4060000B9060000AE060000BC
:10023000A4060000990600008F0600008506000055
:100240007C06000072060000680600005F060000E1
:10025000560600004D060000440600003C06000063
:10026000330600002B060000220600001A060000DC
:10027000120600000A06000002060000FB0500004E
:10028000F3050000EC050000E4050000DD050000BA
:10029000D6050000CF050000C8050000C10500001C
:1002A000BA050000B4050000AD050000A705000078
:1002B000A00500009A050000940500008E050000CE
:1002C00088050000820500007C050000760500001E
:1002D000700500006A050000650500005F0500006C
:1002E0005A050000540500004F0500004A050000B3
:1002F000440500003F0500003A05000035050000F8
:10030000300500002B050000260500002105000037
:100310001D05000018050000130500000E05000073
:100320000A0500000505000001050000FC040000AE
:10033000F8040000F4040000EF040000EB040000E7
:10034000E7040000E3040000DF040000DB04000019
:10035000D6040000D2040000CE040000CB0400004C
:10036000C7040000C3040000BF040000BB04000079
:10037000B7040000B4040000B0040000AC040000A6
:10038000A9040000A5040000A20400009E040000CF
:100390009B040000970400009404000090040000F7
:1003A0008D0400008A04000086040000830400001D
:1003B000800400007C040000790400007604000042
:1003C00073040000700400006D0400006A04000063
:1003D0006704000064040000600400005E04000084
:1003E0005B040000580400005504000052040000A3
:1003F0004F0400004C0400004904000047040000C2
:1004000044040000410400003E0400003C040000DD
:1004100039040000360400003404000031040000F8
:100420002E0400002C040000290400002704000012
:1004300024040000210400001F0400001C0400002C
:100440001A04000018040000150400001304000042
:10045000100400000E0400000C0400000904000059
:10046000070400000504000002040000000400006E
:10047000FE030000FB030000F9030000F703000087
:10048000F5030000F3030000F0030000EE0300009A
:10049000EC030000EA030000E8030000E6030000AC
:1004A000E4030000E1030000DF030000DD030000BF
:1004B000DB030000D9030000D7030000D5030000D0
:1004C000D3030000D1030000CF030000CD030000E0
:1004D000CB030000C9030000C7030000C5030000F0
:1004E000C4030000C2030000C0030000BE030000FC
:1004F000BC030000BA030000B8030000B70300000B
:10050000B5030000B3030000B1030000AF03000017
:10051000AE030000AC030000AA030000A803000023
:10052000A7030000A5030000A3030000A10300002F
:10053000A00300009E0300009C0300009B0300003A
:100540009903000097030000960300009403000045
:1005500092030000910300008F0300008E0300004F
:100560008C0300008A030000890300008703000059
:100570008603000084030000830300008103000061
:100580007F0300007E0300007C0300007B0300006B
:100590007903000078030000760300007503000073
:1005A0007403000072030000710300006F03000079
:1005B0006E0300006C0300006B0300006903000081
:1005C0006803000067030000650300006403000087
:1005D0006203000061030000600300005E0300008E
:1005E0005D0300005C0300005A0300005903000093
:1005F0005803000056030000550300005403000098
:100600005203000051030000500300004E0300009D
:100610004D0300004C0300004B03000049030000A1
:1006200048030000470300004603000044030000A5
:100630004303000042030000410300003F030000A9
:100640003E0300003D0300003C0300003B030000AC
:1006500039030000380300003703000036030000B0
:1006600035030000330300003203000031030000B3
:10067000300300002F0300002E0300002C030000B5
:100680002B0300002A0300002903000028030000B8
:1006900027030000260300002503000024030000B8
:1006A0002203000021030000200300001F030000BC
:1006B0001E0300001D0300001C0300001B030000BC
:1006C0001A030000190300001803000017030000BC
:1006D00016030000140300001303000012030000BF
:1006E00011030000100300000F0300000E030000C0
:1006F0000D0300000C0300000B0300000A030000C0
:1007000009030000080300000703000006030000BF
:1007100005030000040300000303000002030000BF
:100720000103000000030000FF020000FF020000C0
:10073000FE020000FD020000FC020000FB020000BF
:10074000FA020000F9020000F8020000F7020000BF
:10075000F6020000F5020000F4020000F3020000BF
:10076000F2020000F1020000F1020000F0020000BD
:10077000EF020000EE020000ED020000EC020000BB
:10078000EB020000EA020000E9020000E9020000BA
:10079000E8020000E7020000E6020000E5020000B7
:1007A000E4020000E3020000E2020000E2020000B6
:1007B000E1020000E0020000DF020000DE020000B3
:1007C000DD020000DD020000DC020000DB020000B0
:1007D000DA020000D9020000D8020000D8020000AE
:1007E000D7020000D6020000D5020000D4020000AB
:1007F000D4020000D3020000D2020000D1020000A7
:10080000D0020000D0020000CF020000CE020000A3
:10081000CD020000CC020000CC020000CB020000A0
:10082000CA020000C9020000C8020000C80200009D
:10083000C7020000C6020000C5020000C502000099
:10084000C4020000C3020000C2020000C202000095
:10085000C1020000C0020000BF020000BF02000091
:10086000BE020000BD020000BC020000BC0200008D
:10087000BB020000BA020000BA020000B902000088
:10088000B8020000B7020000B7020000B602000084
:10089000B5020000B5020000B4020000B30200007F
:1008A000B2020000B2020000B1020000B00200007B
:1008B000B0020000AF020000AE020000AE02000075
:1008C000AD020000AC020000AC020000AB02000070
:1008D000AA020000AA020000A9020000A80200006B
:1008E000A8020000A7020000A6020000A602000065
:1008F000A5020000A4020000A4020000A302000060
:10090000A2020000A2020000A1020000A00200005A
:10091000A00200009F0200009E0200009E02000054
:100920009D0200009C0200009C0200009B0200004F
:100930009B0200009A020000990200009902000048
:100940009802000097020000970200009602000043
:10095000960200009502000094020000940200003C
:100960009302000093020000920200009102000036
:100970009102000090020000900200008F0200002F
:100980008E0200008E0200008D0200008D02000029
:100990008C0200008B0200008B0200008A02000023
:1009A0008A0200008902000088020000880200001C
:1009B0008702000087020000860200008602000015
:1009C000850200008402000084020000830200000F
:1009D0008302000082020000820200008102000007
:1009E00080020000800200007F0200007F02000001
:1009F0007E0200007E0200007D0200007D020000F9
:100A00007C0200007C0200007B0200007A020000F1
:100A10007A020000790200007902000078020000EA
:100A200078020000770200007702000076020000E2
:100A300076020000750200007502000074020000DA
:100A400073020000730200007202000072020000D4
:100A500071020000710200007002000070020000CC
:100A60006F0200006F0200006E0200006E020000C4
:100A70006D0200006D0200006C0200006C020000BC
:100A80006B0200006B0200006A0200006A020000B4
:100A900069020000690200006802000068020000AC
:100AA00067020000670200006602000066020000A4
:100AB000650200006502000064020000640200009C
:100AC0006302000063020000620200006202000094
:100AD000610200006102000060020000600200008C
:100AE0005F0200005F0200005E0200005E02000084
:100AF0005E0200005D0200005D0200005C0200007A
:100B00005C0200005B0200005B0200005A02000071
:100B10005A02000059020000590200005802000069
:100B20005802000057020000570200005702000060
:100B30005602000056020000550200005502000057
:100B4000540200005402000053020000530200004F
:100B50005302000052020000520200005102000045
:100B60005102000050020000500200004F0200003D
:100B70004F0200004F0200004E0200004E02000033
:100B80004D0200004D0200004C0200004C0200002B
:100B90004B0200004B0200004B0200004A02000022
:100BA0004A02000049020000490200004802000019
:100BB000480200004802000047020000470200000F
:100BC0004602000046020000460200004502000006
:100BD00045020000440200004402000043020000FD
:100BE00043020000430200004202000042020000F3
:100BF00041020000410200004102000040020000EA
:100C0000400200003F0200003F0200003F020000DF
:100C10003E0200003E0200003D0200003D020000D6
:100C20003D0200003C0200003C0200003B020000CC
:100C30003B0200003B0200003A0200003A020000C2
:100C400039020000390200003902000038020000B9
:100C500038020000370200003702000037020000AF
:100C600036020000360200003502000035020000A6
:100C7000350200003402000034020000340200009B
:100C80003302000033020000320200003202000092
:100C90003202000031020000310200003102000087
:100CA00030020000300200002F0200002F0200007E
:100CB0002F0200002E0200002E0200002E02000073
:100CC0002D0200002D0200002C0200002C0200006A
:100CD0002C0200002B0200002B0200002B0200005F
:100CE0002A0200002A0200002A0200002902000055
:100CF000290200002802000028020000280200004B
:100D00002702000027020000270200002602000040
:100D10002602000026020000250200002502000035
:100D2000250200002402000024020000240200002A
:100D30002302000023020000220200002202000021
:100D40002202000021020000210200002102000016
:100D50002002000020020000200200001F0200000C
:100D60001F0200001F0200001E0200001E02000001
:100D70001E0200001D0200001D0200001D020000F6
:100D80001C0200001C0200001C0200001B020000EC
:100D90001B0200001B0200001A0200001A020000E1
:100DA0001A020000190200001902000019020000D6
:100DB00018020000180200001802000017020000CC
:100DC00017020000170200001602000016020000C1
:100DD00016020000150200001502000015020000B6
:100DE00014020000140200001402000014020000AB
:100DF00013020000130200001302000012020000A0
:100E00001202000012020000110200001102000094
:100E10001102000010020000100200001002000089
:100E20000F0200000F0200000F0200000E0200007F
:100E30000E0200000E0200000E0200000D02000073
:100E40000D0200000D0200000C0200000C02000068
:100E50000C0200000B0200000B0200000B0200005D
:100E60000A0200000A0200000A0200000A02000052
:100E70000902000009020000090200000802000047
:100E8000080200000802000007020000070200003C
:100E90000702000007020000060200000602000030
:100EA0000602000005020000050200000502000025
:100EB0000502000004020000040200000402000019
:100EC000030200000302000003020000020200000F
:100ED0000202000002020000020200000102000003
:100EE00001020000010200000002000000020000F8
:100EF0000002000000020000FF010000FF010000EE
:100F0000FF010000FE010000FE010000FE010000E4
:100F1000FE010000FD010000FD010000FD010000D8
:100F2000FC010000FC010000FC010000FC010000CD
:100F3000FB010000FB010000FB010000FB010000C1
:100F4000FA010000FA010000FA010000F9010000B6
:100F5000F9010000F9010000F9010000F8010000AA
:100F6000F8010000F8010000F8010000F70100009E
:100F7000F7010000F7010000F6010000F601000093
:100F8000F6010000F6010000F5010000F501000087
:100F9000F5010000F5010000F4010000F40100007B
:100FA000F4010000F3010000F3010000F301000070
:100FB000F3010000F2010000F2010000F201000064
:100FC000F2010000F1010000F1010000F101000058
:100FD000F1010000F0010000F0010000F00100004C
:100FE000F0010000EF010000EF010000EF01000040
:100FF000EF010000EE010000EE010000EE01000034
:10100000EE010000ED010000ED010000ED01000027
:10101000EC010000EC010000EC010000EC0100001C
:10102000EB010000EB010000EB010000EB01000010
:10103000EA010000EA010000EA010000EA01000004
:10104000E9010000E9010000E9010000E9010000F8
:10105000E8010000E8010000E8010000E8010000EC
:10106000E7010000E7010000E7010000E7010000E0
:10107000E6010000E6010000E6010000E6010000D4
:10108000E6010000E5010000E501000010B50024C4
:101090000021DFF8E808007800280FD1DFF8DC082D
:1010A000012101704FF40051DFF8D40800F005FE73
:1010B0006421DFF8D00801F02DF999E0DFF8BC08D1
:1010C000002101704FF40051DFF8B40800F0C5FDB5
:1010D000DFF8B4088088DFF8B0184988884203D365
:1010E000DFF8A40844886CE0DFF89C088088DFF80B
:1010F0009818498888424BD2DFF88C084088DFF87E
:1011000088180989884243D2DFF87C08007B0028D0
:1011100003D1DFF87408848853E0DFF86C08C089D5
:10112000DFF864188988DFF86028928A891A884273
:1011300007DADFF854088088DFF84C18898A441AE7
:101140001EE0DFF84408808ADFF83C18098A8842EC
:1011500003D2DFF83408C48912E0DFF82C08808A53
:10116000DFF82418498A88420AD2DFF81C08C089AF
:10117000DFF81418898A0818DFF80C18098A441A4D
:10118000DFF80408808A401CDFF8FC17888218E02A
:10119000DFF8F4074088DFF8F0170989884210D398
:1011A000DFF8E407C088DFF8E0174988884207D3F2
:1011B000DFF8D407C088DFF8D0174988441A00E068
:1011C0000024A4B2DFF8C40750F82400B0F1640191
:1011D000DFF8B4074089411889B2DFF8A80701F0A9
:1011E00099F8DFF8A4074088401CDFF89C17488076
:1011F00010BD10B500240021DFF894070078002806
:101200000FD1DFF88C07012101704FF40041DFF8A6
:10121000700700F052FD6421DFF8780701F07AF8DA
:1012200099E0DFF86C07002101704FF40041DFF80E
:10123000500700F012FDDFF860078088DFF85817CC
:101240004988884203D3DFF8500744886CE0DFF810
:1012500048078088DFF84017498888424BD2DFF87A
:1012600038074088DFF830170989884243D2DFF811
:101270002807007B002803D1DFF81C07848853E08F
:10128000DFF81407C089DFF810178988DFF808270E
:10129000928A891A884207DADFF8FC068088DFF82C
:1012A000F816898A441A1EE0DFF8EC06808ADFF817
:1012B000E816098A884203D2DFF8DC06C48912E006
:1012C000DFF8D406808ADFF8D016498A88420AD22D
:1012D000DFF8C406C089DFF8C016898A0818DFF86D
:1012E000B816098A441ADFF8B006808A401CDFF875
:1012F000A816888218E0DFF8A0064088DFF8981664
:101300000989884210D3DFF89006C088DFF8881674
:101310004988884207D3DFF88006C088DFF878164E
:101320004988441A00E00024A4B2DFF8600650F8AF
:101330002400B0F16401DFF860064089411889B2E9
:10134000DFF8500600F0E6FFDFF84C064088401C4E
:10135000DFF84416488010BD10B50C00C0B202285A
:1013600002D2E4B2022C00D325E0DFF81C1608708C
:10137000DFF824160C70C0B2002806D14FF480515B
:10138000DFF8FC0500F099FC05E04FF48051DFF830
:10139000F00500F062FCE4B2002C06D14FF480416D
:1013A000DFF8DC0500F089FC05E04FF48041DFF850
:1013B000D00500F052FC10BD80B5C0B2012806D1A6
:1013C0004FF48061DFF8B80500F047FC05E04FF40A
:1013D0008061DFF8AC0500F070FC01BD80B5DFF87E
:1013E000A8154870DFF8B0154870C0B2002806D1C3
:1013F0004FF40061DFF8880500F05FFC05E04FF472
:101400000061DFF87C0500F028FC01BDF8B50400A0
:101410000D0016000020EDB2042D80F0CC800120DC
:10142000FFF7DCFFEDB2002D03D0022D0FD007D364
:1014300013E04FF4FA7701210020FFF78DFF11E050
:101440004FF4FA7700210120FFF786FF0AE03227E8
:1014500000210020FFF780FF04E032270121012056
:10146000FFF77AFFA4B2200001F080F8DFF82C1516
:1014700001F09CF801F018F9B0F5803F01D34FF668
:10148000FF70DFF80415C880BFB27800DFF8F814E9
:10149000C988884209DBDFF8F004C088022190FB8C
:1014A000F1F0DFF8E414888002E0DFF8DC048780E4
:1014B000DFF8D404C088DFF8D0148988401ADFF838
:1014C000C8140881DFF8C00400214180DFF8B804A7
:1014D00000214181A4B2200001F048F8DFF8BC14DB
:1014E00001F064F801F0E0F8B0F5803F01D34FF669
:1014F000FF70DFF8A414C880BFB27800DFF898143A
:10150000C988884209DBDFF89004C088022190FB7B
:10151000F1F0DFF88414888002E0DFF87C04878033
:10152000DFF87404C088DFF870148988401ADFF887
:1015300068140881DFF8600400214180DFF8580456
:10154000002141810120FFF737FF012001F094F9CC
:10155000F6B2002E0CD1EDB2002D02D0EDB2002D6E
:1015600006D13000C0B200F085F800F078F822E033
:10157000F6B2012E0CD1EDB2002D02D0EDB2002D4D
:1015800006D13000C0B200F075F800F068F812E043
:10159000F6B2022E06D13000C0B200F06BF800F0B7
:1015A0005EF808E0F6B2032E05D040F24511DFF8F0
:1015B000F00301F0DFFBF1BD80B5C0B2002811D10E
:1015C000DFF8C4038088022190FBF1F0DFF8B81344
:1015D0008880DFF8C4038088022190FBF1F0DFF8F7
:1015E000B8138880DFF8A003DFF89C138988418056
:1015F000DFF89403DFF8901389880181DFF888030E
:10160000808880B24000DFF88013C880DFF888034C
:10161000DFF8841389884180DFF87C03DFF87813D2
:1016200089880181DFF87003808880B24000DFF88C
:101630006813C880DFF850034088DFF84C138988AE
:10164000B0EB410F08DADFF850034088DFF84813A9
:101650008988B0EB410FEDDB00F001F801BD80B5EA
:10166000002001F009F9642001F031F90020FFF7B2
:10167000A3FE01BD10B50400E4B2002C02D0E4B218
:10168000012C12D1C048C088BF494988884205D280
:10169000C148C088C049498888421BD3C14AC24951
:1016A0002000C0B200F017F8ECE7E4B2022C0CD135
:1016B000B548C088B44949888842F9D2B648C0883C
:1016C000B5494988884205D3F2E74FF4BB71B44865
:1016D00001F050FB10BD38B50D0014000021C0B260
:1016E000002860D1002001F0ADFB0100C9B211F06B
:1016F000F000C0B2102822D020281AD030281BD0E9
:1017000040280ED0602810D0802802D0C02804D0F5
:1017100018E04FF47A70288016E04FF42F7028807C
:1017200012E04FF4FA7028800EE04FF49670288093
:101730000AE0C820288007E06420288004E03220E6
:10174000288001E000202880C9B211F00F00C0B24B
:1017500001280CD0022812D003280CD0042816D05F
:10176000062810D0082818D00C2813D018E04FF401
:101770007A70208024E04FF42F70208020E04FF416
:10178000FA7020801CE04FF49670208018E0C8208A
:10179000208015E06420208012E0322020800FE0BD
:1017A000002020800CE0C0B2012804D1012001F00B
:1017B00049FB010004E040F2A111794801F0DAFA96
:1017C00031BD80B5020000230020D2B2002A12D120
:1017D00089B25A2901D1C82007E0DE239BB289B221
:1017E00001FB03F0642190FBF1F00222022180B2A0
:1017F000FFF70CFE15E0D2B2012A0DD189B25A29A9
:1018000001D1C82002E0022301FB03F002220321E0
:1018100080B2FFF7FBFD04E04FF4E371604801F094
:10182000A9FA01BDF8B504000D004FF4FA660027CF
:10183000002007000BE003210222C9B2280080B279
:10184000FFF7E4FD300080B201F041F87F1CFFB2E9
:10185000042F0ED2022200214FF49670FFF7D6FD1E
:10186000300080B201F033F8E4B2002CE3D1022161
:10187000E2E7F1BD80B5C0B200281DD142488088A2
:10188000B0F5C8704049C8813F4840F21451018208
:101890003D4840F2A46141823B48002181823A48A0
:1018A000012101733848808A3749498A8842F9D32F
:1018B00035480021017307E0C0B2012804D04FF47D
:1018C000F671374801F056FA01BD38B500250024FD
:1018D0000322002142F21070FFF798FD2A48408849
:1018E00040F665318842F9D3002513E0A4B204F232
:1018F0007120254949888842F8DAA4B204F271209F
:10190000254949888842F1DA0020FFF7B3FF1E48D5
:1019100044886D1CEDB2042DE8D31B484488A4B262
:1019200004F2E240184949888842F8DAA4B204F285
:10193000E240194949888842F1DA0120FFF73CFE6C
:1019400040F6B83000F0C3FF31BD80B5174801F054
:101950005EFB01BD80B50120FFF72EFE144801F0AB
:1019600056FB01BD80B5134801F051FB01BD80B5A8
:1019700001F0D3F9104801F04AFB01BDBD1A002067
:10198000000C0140000400402C1A0020EC0000086C
:10199000BE1A002000080040441A00208FC2753E85
:1019A000786100084E1A0020361A0020C46300082F
:1019B000E4630008A462000804640008F8B50400A9
:1019C0000D00002600220021002300200027DFF860
:1019D00070C464451CD0DFF86C04844218D0DFF872
:1019E0006804844214D0DFF86404844210D0DFF825
:1019F000600484420CD0DFF85C04844208D0DFF835
:101A00005804844204D0B121DFF8500401F0B2F947
:101A1000E878002819D0E878042816D0E878282833
:101A200013D0E878482810D0E87814280DD0E8784A
:101A300010280AD0E8781C2807D0E878182804D0A5
:101A4000B221DFF8180401F095F92888002804D1A4
:101A5000B321DFF8080401F08DF9E87810F00F06E3
:101A6000E878C0060FD5A87801280AD0A8780228FF
:101A700007D0A878032804D0BA21DFF8E00301F0EA
:101A800079F9A87806432878000622D0206800213A
:101A900006E0EA78482A02D101228A402261491CE4
:101AA000082915D2012212FA01F32A881A409A4213
:101AB000F5D18B000F2212FA03F7B84316FA03F29E
:101AC0001043EA78282AE4D101228A406261E6E7DD
:101AD000206028884FF48071884227D360680021F5
:101AE00021E0012211F1080312FA03F32A881A40B7
:101AF0009A4217D18B000F2212FA03F7B84316FA55
:101B000003F21043EA78282A04D1012211F10803D4
:101B10009A406261EA78482A04D1012211F108034F
:101B20009A402261491C0829DBD36060F1BD38B5B9
:101B300004000D000020DFF808138C421DD0DFF8F0
:101B40000403844219D0DFF80003844215D0DFF883
:101B5000FC02844211D0DFF8F80284420DD0DFF895
:101B6000F402844209D0DFF8F002844205D040F24A
:101B70004311DFF8E80201F0FDF8ADB2012D3CD0D1
:101B8000ADB2022D39D0ADB2042D36D0ADB2082D94
:101B900033D0ADB2102D30D0ADB2202D2DD0ADB29E
:101BA000402D2AD0ADB2802D27D04FF48070ADB239
:101BB000854222D04FF40070ADB285421DD0ADB247
:101BC000B5F5806F19D0ADB2B5F5006F15D0ADB2D7
:101BD000B5F5805F11D0ADB2B5F5005F0DD0ADB2F7
:101BE000B5F5804F09D0ADB2B5F5004F05D04FF433
:101BF000A271DFF8680201F0BDF8E06880B2284207
:101C000001D0012000E00020C0B232BD10B50400B8
:101C1000DFF82C0284421DD0DFF82802844219D05C
:101C2000DFF82402844215D0DFF82002844211D06C
:101C3000DFF81C0284420DD0DFF81802844209D07C
:101C4000DFF81402844205D040F25911DFF80C028B
:101C500001F090F8E06880B210BD38B504000D00C6
:101C6000DFF8DC0184421CD0DFF8D801844218D0B0
:101C7000DFF8D401844214D0DFF8D001844210D0C0
:101C8000DFF8CC0184420CD07248844209D0DFF8DE
:101C9000C801844205D04FF4B471DFF8C00101F0EF
:101CA00069F8ADB2002D05D140F26911DFF8AC0141
:101CB00001F060F8ADB2256131BD38B504000D000A
:101CC0005F48844218D05F48844215D05E48844201
:101CD00012D05E4884420FD05D4884420CD05D48EB
:101CE000844209D0DFF87001844205D04FF4BC7102
:101CF000DFF8680101F03EF8ADB2002D05D140F2E9
:101D00007911DFF8580101F035F8ADB2656131BDE8
:101D100070B504000D0016004948844218D04948A7
:101D2000844215D04848844212D0484884420FD09B
:101D3000474884420CD04748844209D0DFF8180154
:101D4000844205D04FF4C671DFF8100101F012F89B
:101D5000ADB2012D3CD0ADB2022D39D0ADB2042DC3
:101D600036D0ADB2082D33D0ADB2102D30D0ADB2DB
:101D7000202D2DD0ADB2402D2AD0ADB2802D27D050
:101D80004FF48070ADB2854222D04FF40070ADB2F6
:101D900085421DD0ADB2B5F5806F19D0ADB2B5F5A5
:101DA000006F15D0ADB2B5F5805F11D0ADB2B5F50D
:101DB000005F0DD0ADB2B5F5804F09D0ADB2B5F52D
:101DC000004F05D040F28D11DFF8900000F0D2FFF7
:101DD000F6B2002E08D0F6B2012E05D04FF4C7712E
:101DE000DFF8780000F0C6FFF6B2002E02D0ADB2E8
:101DF000256101E0ADB2656170BD38B504000D002C
:101E00000F48844218D00F48844215D00E488442AF
:101E100012D00E4884420FD00D4884420CD00D4899
:101E2000844209D0DFF83000844205D040F2A3118B
:101E3000DFF8280000F09EFFADB2E56031BD000084
:101E400000080140000C0140001001400014014056
:101E500000180140001C014000200140C85D00083E
:101E600038B504000D000020DFF868118C4243D023
:101E7000B4F1804F40D0DFF8600184423CD0DFF8FD
:101E80005C01844238D0DFF85801844234D0DFF856
:101E90005401844230D0DFF8500184422CD0DFF866
:101EA0004C01844228D0DFF84801844224D0DFF876
:101EB0004401844220D0DFF8400184421CD0DFF886
:101EC0003C01844218D0DFF83801844214D0DFF896
:101ED0003401844210D0DFF8300184420CD0DFF8A6
:101EE0002C01844208D0DFF82C01844204D0E52183
:101EF000DFF81C0100F03EFF6888002810D06888D9
:101F000010280DD0688820280AD06888402807D07B
:101F10006888602804D0E621DFF8F40000F02AFF8A
:101F2000E88800280ED0E8884FF48071884209D0F4
:101F3000E8884FF40071884204D0E721DFF8D00030
:101F400000F018FF2088DFF88C108C4212D0DFF8E8
:101F50009C108C420ED0B4F1804F0BD0DFF878107B
:101F60008C4207D0DFF874108C4203D0DFF8701079
:101F70008C4204D14FF68F71084069880843DFF81E
:101F800064108C4208D0DFF860108C4204D04FF609
:101F9000FF410840E98808432080A888A085288858
:101FA0002085DFF8300084420FD0DFF84000844203
:101FB0000BD0DFF85400844207D0DFF85000844291
:101FC00003D0DFF85000844201D1287A2086012016
:101FD000A08231BD002C01400004004000080040F8
:101FE000000C00400010004000140040003401408C
:101FF000004C0140005001400054014000180040D6
:10200000001C00400020004000400140004401400E
:10201000785F00080048014038B504000D00DFF883
:10202000A801844244D0B4F1804F41D0DFF89C0134
:1020300084423DD0DFF89801844239D0DFF8940122
:10204000844235D0DFF8B801844231D0DFF8B401E2
:1020500084422DD0DFF88001844229D0DFF87C0152
:10206000844225D0DFF87801844221D0DFF8740162
:1020700084421DD0DFF87001844219D0DFF86C0172
:10208000844215D0DFF86801844211D0DFF8640182
:1020900084420DD0DFF86001844209D0DFF8680186
:1020A000844205D040F21F31DFF8500100F062FE9B
:1020B000EDB2002D08D0EDB2012D05D04FF44871DE
:1020C000DFF8380100F056FEEDB2002D04D0208874
:1020D00050F00100208004E020884FF6FE71084097
:1020E000208031BD70B504000D001600DFF8D80067
:1020F000844244D0B4F1804F41D0DFF8D000844214
:102100003DD0DFF8CC00844239D0DFF8C8008442EB
:1021100035D0DFF8EC00844231D0DFF8E8008442AB
:102120002DD0DFF8B400844229D0DFF8B00084421B
:1021300025D0DFF8AC00844221D0DFF8A80084422B
:102140001DD0DFF8A400844219D0DFF8A00084423B
:1021500015D0DFF89C00844211D0DFF8980084424B
:102160000DD0DFF89400844209D0DFF89C0084424F
:1021700005D040F26131DFF8840000F0FBFD4FF440
:102180007F40054202D1ADB2002D05D140F262314F
:10219000DFF8680000F0EEFDF6B2002E08D0F6B2CF
:1021A000012E05D040F26331DFF8500000F0E2FD6F
:1021B000F6B2002E03D0A0892843A08102E0A089B6
:1021C000A843A08170BD0000002C01400004004025
:1021D00000080040000C004000340140004C014069
:1021E000005001400054014000180040001C004015
:1021F000002000400040014000440140785F00089A
:1022000000100040001400400048014038B50400B0
:102210000D002F48844240D0B4F1804F3DD02D486E
:1022200084423AD02C48844237D02C48844234D05F
:10223000DFF8D800844230D0DFF8D40084422CD0BC
:102240002748844229D0DFF8A000844225D0DFF857
:102250009400844221D0DFF8940084421DD0DFF83E
:10226000A000844219D0DFF88800844215D0DFF83E
:102270008400844211D0DFF8840084420DD0DFF85E
:102280007800844209D0DFF88000844205D040F213
:102290007A51DFF8700000F06DFDEDB2002D08D02E
:1022A000EDB2012D05D040F27B51DFF8580000F06F
:1022B00061FDEDB2002D04D0208850F08000208018
:1022C00004E020884FF67F710840208031BD000077
:1022D000002C01400004004000080040000C0040B9
:1022E0000034014000500140004C014000540140C6
:1022F000001C00400020004000440140004001401C
:1023000000180040785F00080048014000100040BD
:102310000014004038B504000D00DFF8AC00844222
:102320003AD0B4F1804F37D0DFF8A000844233D0E8
:10233000DFF89C0084422FD0DFF8980084422BD035
:102340001C48844228D01C48844225D0DFF88800ED
:10235000844221D0114884421ED0114884421BD0AF
:102360001048844218D01048844215D00F48844247
:1023700012D00F4884420FD0104884420CD010482D
:10238000844209D0DFF83C00844205D040F6DF01EA
:10239000DFF8940100F0EEFCA58531BD004C014052
:1023A000005001400054014000180040001C004053
:1023B0000020004000100040001400400040014098
:1023C0000044014000480140002C0140000400404E
:1023D00000080040000C00400034014038B5040003
:1023E0000D005548844234D0B4F1804F31D0534869
:1023F00084422ED0524884422BD05248844228D066
:102400004B48844225D04B48844222D04F488442D6
:102410001FD0184884421CD01748844219D017484E
:10242000844216D01648844213D01648844210D0F5
:10243000154884420DD0154884420AD03B48844256
:1024400007D04148844204D040F62121364800F0AC
:1024500091FC4FF46140054202D1ADB2002D04D190
:1024600040F62221304800F085FCADB2E8432082DE
:1024700031BD0000004C01400050014000540140BB
:1024800000180040001C00400020004000400140B7
:1024900038B504000D002848844234D0B4F1804F90
:1024A00031D0264884422ED0254884422BD025485E
:1024B000844228D01E48844225D01E48844222D01F
:1024C000224884421FD0224884421CD021488442A2
:1024D00019D02148844216D02048844213D0204885
:1024E000844210D01F4884420DD01F4884420AD035
:1024F0000E48844207D01448844204D040F66D212F
:10250000094800F037FC4FF47F40054202D1ADB2DC
:10251000002D04D140F66E21034800F02BFCADB233
:10252000E843208231BD0000785F0008004401408C
:102530000010004000140040002C01400004004046
:1025400000080040000C00400048014000340140F9
:10255000004C014000500140005401400018004070
:10256000001C00400020004000400140002800BF47
:102570000AD0B0FA80F18840D1F19D01C905020668
:1025800072F1004241EB1020704750F8041B61B11A
:1025900050F8042BD30744BFA9F101039A18002374
:1025A00042F8043B091FFAD1EFE7704710B5FF234B
:1025B00013EAD0541DBF13EAD1529C429A4239E02B
:1025C000A41ADA0780EA0103134042EA012142EA31
:1025D0000020421A3CBF641E01EB4202090AB2FB12
:1025E000F1FE01FB1E221202B2FBF1F001FB1022F0
:1025F0006EF30F201202B2FBF1FE4EEA00207F3490
:1026000006DDFE2C24DA53EA500050EBC45010BD16
:10261000D4F1020401FB1E2240F08071192C1DDC54
:1026200021FA04F0C4F12004A140114371F10042E9
:10263000584110BD9C421ABF03EAD1529A420FE0A2
:1026400080EA010E0EF00043400004D0490016D18C
:1026500043F0FF4010BD490008BFD343180010BD30
:102660009C4205D1D21AF7D001F00041484010BD7C
:102670004A0212BF0846484000F0004010BD4AB967
:102680000902B1FA81F2914044B1A418C00140F0AE
:1026900000409EE7C90141F0004152420002B0FAF9
:1026A00080F4A040141B94E740000DD2010E7F3946
:1026B0000AD4D1F11F0104D4C00140F00040C84049
:1026C00070477FF00000704700207047C0B2774A23
:1026D00012EBC0004160704780B501215FF080407F
:1026E000FFF77CFE01215FF08040FFF7D1FE6F48CD
:1026F000C068002802D06D48C068804701BD00B5A1
:1027000085B01C208DF8000000208DF8010000200D
:102710008DF8020001208DF8030000A800F07DFD77
:1027200042F21070ADF808004720ADF80400002018
:10273000ADF80A000020ADF8060001A95FF0804066
:10274000FFF78EFB01215FF08040FFF75FFD012165
:102750005FF08040FFF760FC012201215FF08040C4
:10276000FFF7C0FC05B000BD80B501215048FFF760
:1027700035FE01214E48FFF78BFE4C48406900288A
:1027800002D04A484069804701BD1FB504001D20A2
:102790008DF8000000208DF8010000208DF8020067
:1027A00001208DF8030000A800F037FD4FF47A7087
:1027B000ADF808004720ADF804000020ADF80A008D
:1027C0000020ADF8060001A93948FFF749FB0121B7
:1027D0003748FFF71BFDE4B2012C08D10121344832
:1027E000FFF71AFC012201213148FFF77BFC1FBDD6
:1027F00080B501212F48FFF7F1FD01212D48FFF79A
:1028000047FE2A48C069002802D02848C06980478E
:1028100001BD1FB504001E208DF8000000208DF8BA
:10282000010000208DF8020001208DF8030000A8AF
:1028300000F0F3FC4FF47A70ADF808004720ADF8D3
:1028400004000020ADF80A000020ADF8060001A940
:102850001848FFF705FB01211648FFF7D7FCE4B243
:10286000012C08D101211348FFF7D6FB01220121D9
:102870001048FFF737FC1FBD10B504002100C9B296
:102880000B48FFF7C9FB2100C9B20A48FFF7C4FB98
:102890002200D2B201210648FFF724FC2200D2B266
:1028A00001210448FFF71EFC10BD0000900100202C
:1028B0000004004000080040DFF8D41400220A8021
:1028C000DFF8CC14098880B28142F9D3704710B583
:1028D0000400A4B20A2094FBF0F0002100B2012809
:1028E00002DB80B2FFF7E8FFA4B20A2094FBF0F10C
:1028F00000FB114064210100481E09B2002906D0E6
:1029000064210A00511E92B2002AFAD1F3E710BDE9
:1029100080B5DFF87C040088411CDFF87424118046
:102920004FF6FF7180B2884203D1DFF864040021C2
:102930000180DFF86004B0F90000411CDFF8542486
:10294000118000B20B280CDBDFF848040021018065
:10295000DFF8440490F90000002802D0002000F0C5
:10296000F3FCDFF83804008800280BD0DFF82004DF
:1029700000880A2190FBF1F201FB1200002801D12E
:1029800000F00FFD01BD80B5012000F0B8FD00286A
:1029900024D0012000F0D4FD4021DFF80404FFF72B
:1029A000C6F8D0F10102D2B24021DFF8F403FFF7FC
:1029B000AFF9DFF8F00390F90000002801D000F033
:1029C000D3F900F08BFD00F05DFDDFF8DC138842E9
:1029D00004D1002000F061FD00F080FD01BD80B554
:1029E000DFF8C80300F013FBDFF8C40300F00FFBAF
:1029F000DFF8C00300F00BFBDFF8BC0300F007FBBF
:102A0000DFF8B80300F003FB01BD10B500240DE0B2
:102A1000DFF8AC0300785021DFF8A82301FB002089
:102A200010EB0410406800F0F2FA641C052C0CDA7C
:102A3000DFF88C0300785021DFF8882301FB0020A9
:102A400010EB041080680028E2D1DFF87C0300F06E
:102A5000DEFA10BD10B500F07AFB002801D100208D
:102A600012E090F90010002000E0401C05280ADA6E
:102A7000D34A12785023D34C03FB024212EB0012CC
:102A80009268002A01D1002010BDCD4A127850234F
:102A9000CC4C03FB024212EB001292F90C2049B21B
:102AA0008A42E2D1C64909785022C64B02FB013165
:102AB00011EB0010806880470120E5E780B500F049
:102AC00063FD00F0BEFD00F073FE00F0F7FD00F0C6
:102AD00037FE0020FEF770FCBC490120FFF7F6FD31
:102AE000BB490220FFF7F2FDBA490320FFF7EEFDD4
:102AF000B949002000F08AFEFFF701FE0020FFF731
:102B000044FE0020FFF785FE00F097FA0120FFF752
:102B1000D3FE002000F0F6FBA04801210180FFF762
:102B20005EFFA24800F073FAAC4800F070FAAC48BF
:102B300000F06DFAAB4800F06AFA012308225FF456
:102B4000E131A94800F069FA984800F060FAFFF70F
:102B50005CFF00F0EEF9FFF77DFF002801D0FFF7E2
:102B600054FF0222002140F6B830FEF74FFC4FF42C
:102B7000FA60FFF7ACFE0222012140F6B830FEF702
:102B800045FC4FF4FA60FFF7A2FE002200214FF44B
:102B90007A70FEF73BFC4FF4FA60FFF798FE5A217B
:102BA0000020FEF70EFE4FF4FA60FFF790FE5A2168
:102BB0000120FEF706FE4FF4FA60FFF788FE0322BD
:102BC000002142F21070FEF721FC8848408840F650
:102BD0006531884205D38648408840F66531884291
:102BE00009D2022000F02EF940F22D118842ECD3D8
:102BF0000020FEF7E1FC0120FEF7DEFC40F6B830D5
:102C0000FFF765FEC8210020FEF70CFE40F6B83045
:102C1000FFF75DFE0020FEF758FE41F28830FFF717
:102C200056FE98E780B5664801210170714800F0B2
:102C3000EEF901BD80B56248022101706E4800F0D6
:102C4000E6F901BD80B55E48032101706B4800F0D4
:102C5000DEF901BD80B55A4804210170684800F0D2
:102C6000D6F901BD80B5002000F04CFB654800F0AE
:102C7000CEF901BD80B5002000F055FB624800F0A0
:102C8000C6F901BD80B54E48002101705F4800F0D3
:102C9000BEF901BD80B55E4800F0B9F95D4800F0AD
:102CA000B6F95D4800F0B3F93B480121017001BD60
:102CB00080B55A4800F0ABF9594800F0A8F93648F9
:102CC0000021017001BD80B53D48002101705548CB
:102CD00000F09DF901BD80B5534800F098F900F06F
:102CE000AEFD524800F093F900F03EF82D48012166
:102CF000017001BD80B54E4800F089F94D4800F0E3
:102D000086F928480021017001BD80B52C480021BA
:102D10000170494800F07BF901BD2948002101708C
:102D2000704738B50021002200234FF46164B0FBE6
:102D3000F4F421004FF46164B0FBF4F504FB1504D6
:102D40003C25B4FBF5F422004FF46164B0FBF4F5CC
:102D500004FB15003C24B0FBF4F504FB1500030054
:102D6000364800F05AF931BD80B500F08BFBFFF713
:102D7000D8FF01BD38B504000D002A0021003048FD
:102D800000F04BF94FF47A70FFF7A1FDF5E7000072
:102D9000AE1A0020AC1A0020BB1A0020B01A002086
:102DA00000100140BC1A002080510100486000085A
:102DB0001C680008F4610008F06000083861000831
:102DC000BA1A0020000000209867000811290008A6
:102DD0008D100008F311000887290008AC6700086F
:102DE0009C640008246200089C6000082C1A0020E3
:102DF000441A0020C0670008D4670008E86700088C
:102E000008660008B8640008D4640008206600085A
:102E1000F0640008846300087C62000838660008DB
:102E2000506600080C65000868660008A463000886
:102E30008066000828650008986600084465000858
:102E4000CC62000810B50024C0B2002812D0C0B275
:102E500001280FD0C0B202280CD0C0B2032809D07C
:102E6000C0B2042806D0C0B2052803D02B210348E5
:102E7000FFF780FF200080B210BD0000B86100089D
:102E800010B5C54800F09CFDC44800F099FD002431
:102E90000EE0C34810EB04104021C24A01FB04219C
:102EA000C160BF4810EB0411BC4800F04DFD641C2C
:102EB000402CEEDBBC4800F083FDBC4800F080FDF8
:102EC00000240EE0BA4810EB04104021B94A01FB7F
:102ED0000421C160B64810EB0411B44800F034FD81
:102EE000641C0A2CEEDB40220021B34800F073FD85
:102EF00040220021B14800F06EFD40220021B04880
:102F000000F069FDAF4800214180AE4800210180FA
:102F1000AD480021018010BD10B5040089B2200029
:102F200000F014FF8021200000F05EFF0028F9D09F
:102F300010BD70B5A648007801280ED070BD9E481F
:102F4000215C89B2A148FFF7E7FF641CADB2AC4237
:102F5000F5DB3100914800F0F7FC8F4800F025FDCB
:102F60000600002EEAD03589B6F90820F1689248AB
:102F700001F078F80024E9E72DE9F0410D00280080
:102F800001F078F80400A4B2601E402190FBF1F03B
:102F9000471C824800F01CFDB84236DB002617E0D3
:102FA0007E4800F002FD8046B8F1000F0FD04022AD
:102FB0002900D8F80C0001F055F84020A8F80800C6
:102FC0004146754800F0C0FC403C05F24005761CC7
:102FD000781E8642E4DB714800F0E7FC8046B8F1D9
:102FE000000F0CD0A4B222002900D8F80C0001F088
:102FF00039F8A8F808404146674800F0A5FC724837
:103000000088002801D1FFF794FFBDE8F08180B56A
:1030100001006E48FFF7B0FF01BD0EB400B501AA74
:1030200001006C4801F042F86A49002242546949A3
:103030006648FFF7A1FF5DF810FB00B587B0FFF70A
:103040001FFF25208DF8040000208DF805000020CA
:103050008DF8060001208DF8070001A800F0DDF8CA
:103060004FF40070ADF8000003208DF80200182026
:103070008DF8030000A95848FEF7A0FC4FF48060CB
:10308000ADF8000004208DF8030000A95248FEF7B7
:1030900095FC5FF4E13002900020ADF80C000020B8
:1030A000ADF80E000020ADF810000020ADF81400BF
:1030B0000C20ADF8120002A9444800F097FC012250
:1030C00040F22551414800F0B4FD01213F4800F095
:1030D00079FD3F480121017007B000BD38B540F2CD
:1030E00025513A4800F0DAFE002820D001242F486C
:1030F00000F06EFC012815DB2C4800F056FC0500A2
:10310000002D0FD0314800F046FE8DF80000A4B22B
:10311000220000A9E86800F0A5FF2C8129002248C0
:1031200000F012FC40F22551284800F041FF31BD6B
:1031300080B52649884208D11B4800F049FC002888
:1031400001D1002002E0012000E0002002BD10B506
:10315000124800F03DFC214908800F4800F038FC7F
:103160001F4908801948FFF7E3FF002811D00E48D7
:1031700000F01BFC0400002C0BD0B4F90820E1681F
:103180000F4800F06FFF2100084800F0DDFB0C48FD
:1031900000E0002010BD00005C1A00206C1A002026
:1031A000C8110020C80100207C1A00208C1A0020C1
:1031B00048180020C8150020AC190020EC19002088
:1031C0006C19002068190020B61A00200038014050
:1031D000C5010020E818002000080140B21A0020B4
:1031E000B41A002010B50400B4F5E06F10D0B4F5A7
:1031F000C06F0DD0B4F5A06F0AD0B4F5806F07D0C2
:103200004FF44070844203D062213548FFF7B2FD8D
:10321000344820433449086010BD38B5040000200C
:1032200000210F25E278002A06D0E078012803D09B
:1032300074212B48FFF79EFD6078102803D3752179
:103240002748FFF797FDA078102803D3762124485C
:10325000FFF790FDE07800281DD02348006810F4A7
:10326000E060D0F5E060000AD0F10401C54060786C
:103270008840A17829400843000121781B4A8854DE
:10328000207840111A490122237813F01F039A4035
:1032900041F8202009E020784011164901222378C6
:1032A00013F01F039A4041F8202031BD38B50400C7
:1032B0000D00B4F1005F06D0B4F1006F03D09D2182
:1032C0000748FFF757FD0C48854203D39E21044869
:1032D000FFF750FD0948284020430949086031BDE7
:1032E000E45F00080000FA050CED00E000E400E0F7
:1032F00000E100E080E100E0FFFF0F0080FFFF1F22
:1033000008ED00E080B5C0B201280BD2C0B23E4942
:1033100011EBC001898889B2C0B23B4A52F8300033
:10332000FEF79BFC01BD80B5C0B201280BD2C0B234
:10333000354911EBC001898889B2C0B2324A52F8CE
:103340003000FEF7BAFC01BD10B50400E4B2012C58
:1033500026D2E4B22C4850F83400FEF757FCE4B211
:10336000294911EBC401B1F9041008420CD1E4B2AF
:10337000254810EBC400818889B2E4B2224850F895
:103380003400FEF76AFC0BE0E4B21F4810EBC40007
:10339000818889B2E4B21C4850F83400FEF78DFCF5
:1033A00010BD38B5002400251848FEF72FFC040096
:1033B00054F0FF041648007834EA000005002900A4
:1033C00089B21248FEF719FD1248007800280DD185
:1033D0000F480078C0B240080D4908700C480078CA
:1033E000C0070FD50B48012101700BE00848007899
:1033F00040000749087006480078000602D50548D5
:103400000021017031BD0000346800080010014047
:10341000C4010020B91A002038B504000D004FF691
:10342000F870044202D1A4B2002C03D15F214F48AE
:10343000FFF7A0FCEDB2002D06D0EDB2012D03D0B8
:1034400060214A48FFF796FCEDB2002D05D04848B0
:10345000008820434649088004E045480088A0438E
:103460004349088031BD4348008850F0100041496D
:10347000088070473F4800884FF6EF7108403D498B
:103480000880704700203C49098808003B490988AA
:1034900089B280B250EA0140704710B50400FFF7CE
:1034A000E2FF200C3549088033480480FFF7E2FF33
:1034B00010BD10B50400B4F5801F03D3A5212B481F
:1034C000FFF758FCFFF7CFFF200C10F00F002C493E
:1034D00008802C480480FFF7CDFF10BD25480088E8
:1034E0008006FBD57047234800884FF6F7710840E7
:1034F000204908801F4800880007FBD5704710B599
:1035000004000020A4B2042C0AD0A4B2022C07D0DC
:10351000A4B2012C04D040F229111448FFF72AFC70
:103520001448008820401249098889B2214204D0F9
:10353000C0B2002801D0012000E00020C0B210BDC0
:1035400010B504004FF6F870044202D1A4B2002C6A
:1035500004D140F243110548FFF70CFC05480088F0
:10356000A0430449088010BD000000000C5F000863
:1035700000280040042800401C2800401828004073
:10358000082800400C28004080B500F0A5FD5FF43D
:10359000803000F0D1FD00F009FE7D4908707C48C4
:1035A000007801284CD1102001F009F9022001F027
:1035B000EDF8002000F099FE002000F0DCFE4FF452
:1035C000806000F0B7FE5FF4E0115FF4803000F03F
:1035D0000AFE012000F057FE392001F05FF80028B4
:1035E000FAD0022000F062FE00F079FE0828FBD13C
:1035F00001215FF0805001F019F801217D2000F0D9
:10360000EEFF01214FF4804000F0E9FF012101208D
:1036100001F00CF80121022001F008F8012104203A
:1036200001F004F84FF4804000F0C7FE01214FF490
:10363000007000F0D4FF0121012000F0A7FF01BDC0
:10364000FEE780B541F2FF00ADF8000003208DF8E1
:10365000020010208DF8030000A94E48FEF7AEF9D5
:103660000C20ADF8000018208DF8030003208DF821
:10367000020000A94848FEF7A1F94FF47C40ADF8DC
:10368000000002208DF8020010208DF8030000A930
:103690004248FEF793F94FF480614048FEF70DFB76
:1036A0000720ADF8000002208DF8020000208DF800
:1036B000030000A93848FEF781F901BD00B585B0C7
:1036C0000020009001208DF8040001208DF80500F5
:1036D0005FF4602002900020039003208DF810001A
:1036E00000A92F4801F08CF80523012200212C4865
:1036F00001F015FA052302220121294801F00FFAF1
:10370000052303220221264801F009FA0121244859
:1037100001F06EF90121224801F03CF9204801F046
:1037200092F91F4801F0A8F90028FAD11C4801F0CD
:10373000C0F91B4801F0D6F90028FAD105B000BD48
:1037400000B58BB0174801F0D1FA17480090174820
:10375000019000200290032003900020049080201C
:1037600005904FF4807006904FF480600790202001
:1037700008904FF40050099000200A9000A90948D1
:1037800001F093FB0121074801F05EFC0BB000BD86
:10379000B81A00200010014000080140000C014050
:1037A00000240140080002404C240140A41A0020DB
:1037B00080B500215FF00060FFF778FD4FF4C06036
:1037C000FFF710FD14208DF8000000208DF8010097
:1037D00000208DF8020001208DF8030000A8FFF7FB
:1037E0001CFD03208DF8000002208DF80100002050
:1037F0008DF8020001208DF8030000A8FFF70DFDF1
:1038000001BD0268531C036011707047C0B2274AA3
:1038100012EBC0004160704780B501215FF080402D
:10382000FEF7DCFD01215FF08040FEF731FE1F480E
:103830004068002802D01D484068804701BD80B51F
:10384000042001F00DFD4AF2A55188420FD018481E
:10385000FFF7DDFB00F036F81648FFF7D8FB00F065
:103860005CF84AF2A551042001F068FC1BE07B20C3
:1038700000F014FF002803D00F48FFF7C8FB07E053
:103880007A2000F00BFF002802D00C48FFF7BFFBA6
:103890000B48FFF7BCFBFFF726FE01210120FFF7D5
:1038A000BBFDFFF71BFE00F03FFF01BD9C1A00208F
:1038B00024640008B0660008F06200084464000850
:1038C0001463000880B501215FF0C05000F0AEFE27
:1038D000012001F05BFD01F029FC012000F08BFDCF
:1038E000412000F0DBFE0028FAD04FF4807000F099
:1038F000ACFD012000F0C5FDFFF7F5FDFFF7EEFD83
:1039000001210120FFF788FDFFF7E8FD47F6FF7072
:10391000FFF7CFFDFFF7E2FD01BD80B5FFF7DEFD4C
:1039200000F005F8FFF7B9FDFFF7D8FD01BD10B4B1
:103930000A200B2100224FF461633C24614303FB06
:103940000010101810BC704702684A6000220A601C
:103950000268002A02D00268116000E04160016044
:103960008189491C818170474A68002A03D04A68CE
:103970000B68136001E00A6842600A68002A03D0FD
:103980000A684968516001E0496801608189491EFF
:103990008181704710B50468002C01D1002003E03C
:1039A0002100FFF7E1FF200010BD10B54468002C96
:1039B00001D1002003E02100FFF7D6FF200010BD59
:1039C00010B504002000FFF7E5FF0028FAD110BD74
:1039D000B0F90C00704710B5040010000A00010097
:1039E000200001F0E7FC200010BD0000F0B585B01C
:1039F00004000D0000200021002200230026DFF833
:103A0000CC73BC4214D0DFF8C803844210D0DFF876
:103A1000C40384420CD0DFF8C003844208D0DFF82E
:103A2000C003844204D0B521DFF8B003FFF7A2F948
:103A30002868002804D02868DFF8A813884204D337
:103A4000B621DFF89803FFF795F9A888002808D079
:103A5000A888B0F5805F04D0B721DFF88003FFF7B6
:103A600089F9E888002810D0E888B0F5805F0CD08C
:103A7000E888B0F5005F08D0E888B0F5405F04D072
:103A8000B821DFF85803FFF775F9288900280CD012
:103A90002889B0F5806F08D02889B0F5C06F04D0B0
:103AA000B921DFF83803FFF765F968894FF6F3713C
:103AB000084202D16889002804D1BA21DFF81C032A
:103AC000FFF758F9A889002813D0A8894FF480710E
:103AD00088420ED0A8894FF40071884209D0A88985
:103AE0004FF44071884204D0BB21DFF8F002FFF7A9
:103AF00041F9A889002810D0DFF8D00284420CD008
:103B0000DFF8CC02844208D0DFF8C802844204D037
:103B1000BF21DFF8C802FFF72DF92600208A4CF6F6
:103B2000FF710840E98808432082A0894EF6F3110E
:103B30000840A9882A8911436A8911430843A08152
:103B4000A08A4FF6FF410840A9890843A08200A837
:103B500000F0AAFCDFF87402864201D1039900E06C
:103B60000299A089000407D5192000FB01F02968FB
:103B70004900B0FBF1F206E0192000FB01F02968D2
:103B80008900B0FBF1F26420B2FBF0F00001010902
:103B9000642303FB1123A189090408D5D90032311C
:103BA0006422B1FBF2F111F00701084307E01901AB
:103BB00032316422B1FBF2F111F00F010843208190
:103BC00005B0F0BD38B504000D00DFF800028442F6
:103BD00015D0DFF8FC01844211D0DFF8F8018442EF
:103BE0000DD0DFF8F401844209D0DFF8F4018442FB
:103BF00005D040F25F11DFF8E401FFF7BBF8EDB24A
:103C0000002D08D0EDB2012D05D04FF4B071DFF8D2
:103C1000CC01FFF7AFF8EDB2002D04D0A08950F42D
:103C20000050A08104E0A0894DF6FF710840A081FA
:103C300031BDF8B504000D0016000020002100225F
:103C40000023DFF88871BC4215D0DFF8840184427C
:103C500011D0DFF8800184420DD0DFF87C0184426E
:103C600009D0DFF87C01844205D04FF4C371DFF83E
:103C70006C01FFF77FF8ADB2282D26D040F22770F7
:103C8000ADB2854221D040F22660ADB285421CD053
:103C900040F22550ADB2854217D040F22440ADB27B
:103CA000854212D040F64600ADB285420DD040F6B6
:103CB0006A10ADB2854208D0ADB2602D05D040F299
:103CC0008711DFF81801FFF755F8F6B2002E08D07B
:103CD000F6B2012E05D04FF4C471DFF80001FFF7F2
:103CE00049F840F66A10ADB2854211D1DFF8DC0028
:103CF00084420DD0DFF8D800844209D0DFF8D40028
:103D0000844205D04FF4C671DFF8D000FFF732F8D7
:103D100023002800C0B24009C0B2ADB215F01F01A7
:103D200001228A40012801D10C3304E0022801D18C
:103D3000103300E01433F6B2002E03D0186810439D
:103D4000186002E0186890431860F1BD38B50400AF
:103D50000D001E48844210D01D4884420DD01D48DD
:103D600084420AD01C48844207D01D48844204D0B3
:103D700040F24F211948FEF7FDFF4FF40070ADB23D
:103D8000854204D34FF414711448FEF7F3FFE8059D
:103D9000C00DA08031BD10B504000C48844210D085
:103DA0000B4884420DD00B4884420AD00A48844212
:103DB00007D00B48844204D04FF418710748FEF72F
:103DC000D9FFA088C005C00D10BD0000003801401B
:103DD0000044004000480040004C0040145C0008D3
:103DE0000050004021AA440038B504000D00002016
:103DF00096498C4210D0964884420DD09548844212
:103E00000AD09548844207D09548844204D040F2B5
:103E10006A319248FEF7AEFFADB2012D23D0ADB2AC
:103E2000802D20D0ADB2402D1DD0ADB2202D1AD0A6
:103E3000ADB2102D17D04FF48070ADB2854212D0C4
:103E40004FF40070ADB285420DD0ADB2082D0AD04E
:103E5000ADB2042D07D0ADB2022D04D040F26B31CB
:103E60007E48FEF787FF4FF40070ADB285420DD15A
:103E7000764884420AD07648844207D07548844206
:103E800004D040F26F317548FEF774FF2088284255
:103E900001D0012000E00020C0B232BD70B50400A6
:103EA0000D000021002200230020684EB44210D0F3
:103EB000674884420DD0674884420AD066488442ED
:103EC00007D06748844204D040F2BD316348FEF712
:103ED00051FFADB2282D31D040F22770ADB28542EE
:103EE0002CD040F22660ADB2854227D040F225505A
:103EF000ADB2854222D040F22440ADB285421DD001
:103F000040F64600ADB2854218D040F66A10ADB218
:103F1000854213D04FF45870ADB285420ED04FF4A5
:103F20001870ADB2854209D04FF4B070ADB2854281
:103F300004D040F2BE314948FEF71CFF40F66A103B
:103F4000ADB285420DD1414884420AD040488442F6
:103F500007D04048844204D040F2C2313F48FEF7C7
:103F600009FF2800C0B24309DBB2ADB215F01F0251
:103F7000012010FA02F2012B02D1A089024006E0D2
:103F8000022B02D1208A024001E0A08A0240ADB299
:103F9000290A89B2012010FA01F120880140002A83
:103FA00003D0002901D0012000E00020C0B270BD84
:103FB00038B504000D0000200021244A944210D09E
:103FC000234884420DD0234884420AD022488442A8
:103FD00007D02348844204D040F206411F48FEF730
:103FE000C9FE40F22660ADB2854213D040F22550A2
:103FF000ADB285420ED040F64600ADB2854209D042
:1040000040F66A10ADB2854204D040F20741134831
:10401000FEF7B0FE40F66A10ADB285420DD10B48F6
:1040200084420AD00A48844207D00A48844204D015
:1040300040F20B410948FEF79DFEADB2280A01216E
:10404000814089B2C843208031BD00000038014062
:104050000044004000480040004C0040145C000850
:104060000050004010B50400200001F0D7F92000F6
:1040700010BD000000F10103810704D010F8011BFE
:1040800089B18107FAD10268B2F10131914311F08F
:10409000803F04BF50F8042FF6E710F8011B11B160
:1040A00010F8011BFBE7C01A7047000016B5044664
:1040B000009401AB0A4600A906487844163001F086
:1040C000E9F9009900220A7000285CBF0098001BE3
:1040D00016BD00BF2FF7FFFFDFF85C06006850F049
:1040E0000100DFF854160860DFF850060068DFF8BA
:1040F00050160840DFF844160860DFF83C060068F8
:10410000DFF840160840DFF830160860DFF82806B0
:10411000006830F48020DFF820160860DFF81C0605
:10412000006830F4FE00DFF814160860DFF81806A7
:104130005FF41F010160704710B50400002C0BD024
:10414000B4F5803F08D0B4F5802F05D04FF48D71C1
:10415000DFF8F805FEF70EFEDFF8DC05006830F446
:104160008030DFF8D4150860DFF8CC05006830F443
:104170008020DFF8C4150860B4F5803F03D0B4F5A3
:10418000802F09D011E0DFF8B005006850F48030CE
:10419000DFF8A415086008E0DFF89C05006850F41B
:1041A000A020DFF894150860FFE710BD80B500205F
:1041B000009000200021312000F070FA01000098EA
:1041C000401C00900098B0F5A06F02D0C9B2002941
:1041D000F1D0312000F062FA002801D0012000E087
:1041E0000020C0B202BD38B504000D000020002C34
:1041F0000BD0B4F5803F08D0B4F5403F05D04FF464
:10420000C471DFF84805FEF7B5FD002D2FD0B5F5D8
:10421000802F2CD0B5F5002F29D0B5F5402F26D012
:10422000B5F5801F23D0B5F5A01F20D0B5F5C01F70
:104230001DD0B5F5E01F1AD0B5F5001F17D0B5F5A4
:10424000101F14D0B5F5201F11D0B5F5301F0ED0BA
:10425000B5F5401F0BD0B5F5501F08D0B5F5601F60
:1042600005D040F28911DFF8E404FEF783FDDFF8A2
:10427000CC04006830F47C1055EA04010843DFF8F0
:10428000BC14086031BD10B50400E4B2002C08D0A5
:10429000E4B2012C05D040F29D11DFF8B004FEF726
:1042A00069FDDFF8AC04E4B2046010BD10B5040091
:1042B0000020002C09D0012C07D0022C05D040F2A0
:1042C0004121DFF88804FEF755FDDFF8700400682F
:1042D000800880002043DFF86414086010BDDFF818
:1042E0005C04006810F00C00704710B5040000205A
:1042F000002C15D0802C13D0902C11D0A02C0FD0D6
:10430000B02C0DD0C02C0BD0D02C09D0E02C07D075
:10431000F02C05D040F26D21DFF83004FEF72AFDC5
:10432000DFF81804006830F0F0002043DFF80C14C8
:10433000086010BD10B504000020002C11D0B4F5A9
:10434000806F0ED0B4F5A06F0BD0B4F5C06F08D05D
:10435000B4F5E06F05D040F28721DFF8F003FEF7F7
:1043600009FDDFF8D803006830F4E0602043DFF88F
:10437000CC13086010BD10B504000020002C11D033
:10438000B4F5806F0ED0B4F5A06F0BD0B4F5C06F4C
:1043900008D0B4F5E06F05D040F2A121DFF8AC03FE
:1043A000FEF7E8FCDFF89403006830F4605050EA50
:1043B000C400DFF88813086010BD10B504000020A9
:1043C000002C0ED0B4F5804F0BD0B4F5004F08D0C0
:1043D000B4F5404F05D040F20B31DFF87003FEF723
:1043E000C9FCDFF85803006830F440402043DFF890
:1043F0004C13086010BD10B50400E4B2002C0BD0C3
:10440000E4B2012C08D0E4B2042C05D040F24931CA
:10441000DFF83803FEF7AEFCDFF838030021017047
:10442000DFF8300300210170E4B2012C02D0042C2B
:1044300005D009E0DFF81C030121017004E0DFF87A
:10444000140305210170FFE710BD10B504004FF4FF
:10445000807084420DD04FF40070844209D04FF434
:104460004070844205D040F27B31DFF8E002FEF775
:1044700081FCDFF8E00200682043DFF8D812086012
:1044800010BD10B50400E4B2002C08D0E4B2012C39
:1044900005D040F28931DFF8B402FEF76BFCDFF89B
:1044A000B802E4B2046010BD30B400220021002341
:1044B0000024DFF888522D6815F00C052A00002A28
:1044C00004D0042A06D0082A08D029E0DFF88C128C
:1044D000016028E0DFF88412016024E0DFF85C125C
:1044E000096811F47011DFF85422126812F4803355
:1044F000890C891C002B04D1DFF864225143016030
:104500000DE0DFF838221268920304D5DFF850225C
:104510005143016003E0DFF844225143016002E0AF
:10452000DFF838120160DFF81412096811F0F002A8
:104530001209DFF83012545C0168E1404160DFF895
:10454000FC11096811F4E062120ADFF81812545CD9
:104550004168E1408160DFF8E411096811F46052BC
:10456000D20ADFF80012545C4168E140C160DFF814
:10457000CC11096811F44042920BDFF8EC11545C45
:10458000C168B1FBF4F1016130BC704738B504007B
:104590000D00DFF8D801044201D1002C04D140F213
:1045A00032416A48FEF7E6FBEDB2002D07D0EDB2CE
:1045B000012D04D040F233416448FEF7DBFBEDB23D
:1045C000002D06D0DFF8A801006820436849086084
:1045D00004E067480068A0436549086031BD38B50C
:1045E00004000D006348044201D1002C04D140F2C4
:1045F00051415648FEF7BEFBEDB2002D07D0EDB29B
:10460000012D04D040F252415048FEF7B3FBEDB209
:10461000002D05D05848006820435749086004E041
:1046200055480068A0435449086031BD38B50400BE
:104630000D005248044201D1002C04D14FF48E6188
:104640004248FEF797FBEDB2002D07D0EDB2012DE9
:1046500004D040F271413D48FEF78CFBEDB2002DD5
:1046600005D04748006820434549086004E04448B5
:104670000068A0434249086031BD10B50400E4B2AF
:10468000002C07D0E4B2012C04D040F2DF412F48C7
:10469000FEF770FB3B48E4B2046010BD10B50400A7
:1046A000002100220020E4B2212C22D0E4B2312CDF
:1046B0001FD0E4B2392C1CD0E4B2412C19D0E4B2A2
:1046C000612C16D0E4B27A2C13D0E4B27B2C10D03B
:1046D000E4B27C2C0DD0E4B27D2C0AD0E4B27E2C66
:1046E00007D0E4B27F2C04D040F23B511748FEF7CC
:1046F00041FBE4B26109C9B2012902D10E48026846
:1047000006E0022902D11348026801E01E4802684F
:10471000E4B214F01F0101208840024201D00120C0
:1047200000E00020C0B210BD1748006850F0807053
:104730001549086070470000001002400410024054
:104740000000FFF8FFFFF6FE08100240A05E000820
:1047500060004242201002403C04424200127A00B3
:1047600000093D00B0010020C0010020A8FAFFFFB1
:10477000141002400200C0FF1810024000360181F0
:104780001C100240400442422410024010B50400B4
:104790000020002C09D0012C07D0022C05D04FF4AA
:1047A0008171DFF85400FEF7E5FADFF85000006889
:1047B00010F038002043DFF84410086010BD10B539
:1047C0000400102C07D0002C05D04FF49771DFF8AF
:1047D0002800FEF7CFFADFF82400006830F0100060
:1047E000DFF818100860DFF8140000682043DFF8D5
:1047F0000C10086010BD0000A45B000800200240FF
:1048000070B504000D0000200026DFF8C4148C42AF
:104810000CD0DFF8C004844208D0DFF8BC04844226
:1048200004D0DE21DFF8B404FEF7A4FA28680028DB
:1048300028D02868B0F5803F24D02868B0F5003F24
:1048400020D02868B0F5403F1CD02868B0F5802FF4
:1048500018D02868B0F5A02F14D02868B0F5C02F64
:1048600010D02868B0F5E02F0CD02868B0F5002FE4
:1048700008D02868B0F5102F04D0DF21DFF85C04E1
:10488000FEF778FA2879002807D02879012804D083
:10489000E021DFF84804FEF76DFA6879002807D0B8
:1048A0006879012804D0E121DFF83004FEF762FACC
:1048B000A868002837D0A868B0F5003F33D0A868B2
:1048C000B0F5802F2FD0A868B0F5C02F2BD0A868E6
:1048D000B0F5002F27D0A868B0F5202F23D0A86806
:1048E000B0F5402F1FD0A868B0F5602F1BD0A86886
:1048F000002818D0A868B0F5003F14D0A868B0F51B
:10490000C02F10D0A868B0F5002F0CD0A868B0F563
:10491000202F08D0A868B0F5402F04D0E221DFF89E
:10492000BC03FEF727FAE868002808D0E868B0F56D
:10493000006F04D0E321DFF8A403FEF71BFA287C04
:10494000401EC0B2102804D3E421DFF89003FEF724
:1049500011FA6068DFF88813084029682A7951EA5B
:10496000022108436060A068DFF878130840E96816
:10497000AA6811436A7951EA42010843A060E06ADB
:1049800030F47000297C491E0E43F6B250EA0650FE
:10499000E06270BD38B504000D00DFF834038442D6
:1049A0000DD0DFF83003844209D0DFF82C038442B5
:1049B00005D040F22D11DFF82403FEF7DBF9EDB24C
:1049C000002D08D0EDB2012D05D04FF49771DFF81E
:1049D0000C03FEF7CFF9EDB2002D04D0A06850F023
:1049E0000100A06003E0A06840084000A06031BD65
:1049F00038B504000D00DFF8D802844209D0DFF892
:104A0000D802844205D04FF4A371DFF8D002FEF73C
:104A1000B1F9EDB2002D08D0EDB2012D05D040F274
:104A20004711DFF8B802FEF7A5F9EDB2002D05D069
:104A3000A0684FF480710843A06003E0A06830F4E0
:104A40008070A06031BD10B50400DFF8840284429C
:104A50000DD0DFF88002844209D0DFF87C02844266
:104A600005D040F27D11DFF88002FEF783F9A068DF
:104A700050F00800A06010BD10B504000020DFF861
:104A800050128C420DD0DFF84C02844209D0DFF87E
:104A90004802844205D040F28B11DFF84C02FEF749
:104AA00069F9A068000701D5012000E00020C0B22C
:104AB00010BD10B50400DFF8180284420DD0DFF8F5
:104AC0001402844209D0DFF81002844205D040F27B
:104AD000A311DFF81402FEF74DF9A06850F00400AE
:104AE000A06010BD10B504000020DFF8E4118C4276
:104AF0000DD0DFF8E001844209D0DFF8DC01844208
:104B000005D040F2B111DFF8E001FEF733F9A068FB
:104B1000400701D5012000E00020C0B210BDF8B56B
:104B200004000D0016001F0000200021DFF8A02166
:104B300094420DD0DFF89C01844209D0DFF898013F
:104B4000844205D040F25121DFF89C01FEF712F9B2
:104B5000EDB2002D38D0EDB2012D35D0EDB2022DE1
:104B600032D0EDB2032D2FD0EDB2042D2CD0EDB20A
:104B7000052D29D0EDB2062D26D0EDB2072D23D07C
:104B8000EDB2082D20D0EDB2092D1DD0EDB20A2DC9
:104B90001AD0EDB20B2D17D0EDB20C2D14D0EDB212
:104BA0000D2D11D0EDB20E2D0ED0EDB20F2D0BD07C
:104BB000EDB2102D08D0EDB2112D05D040F25221EA
:104BC000DFF82401FEF7D6F8701EC0B2102805D316
:104BD00040F25321DFF81001FEF7CCF8FFB2002FAE
:104BE0001AD0FFB2012F17D0FFB2022F14D0FFB29C
:104BF000032F11D0FFB2042F0ED0FFB2052F0BD020
:104C0000FFB2062F08D0FFB2072F05D04FF4157161
:104C1000DFF8D400FEF7AEF8EDB20A2D11D3E0684C
:104C20000721B5F10A0203235A4391408843FFB29A
:104C3000B5F10A010322514317FA01F10843E0607C
:104C40000EE020690721032202FB05F29140884310
:104C5000FFB2032101FB05F117FA01F108432061BE
:104C6000F6B2072E0FD2606B1F21721E05235A4326
:104C700091408843EDB2711E0522514315FA01F1AE
:104C80000843606323E0F6B20D2E0FD2206B1F2184
:104C9000F21F05235A4391408843EDB2F11F0522CC
:104CA000514315FA01F10843206310E0E06A1F2127
:104CB000B6F10D0205235A4391408843EDB2B6F197
:104CC0000D010522514315FA01F10843E062F1BDDF
:104CD0000024014000280140003C0140845C0008A1
:104CE000FFFEF0FFFDF7F1FF845C000810B5040043
:104CF000DFF8F803844230D0DFF8F40384422CD08C
:104D0000DFF8F003844228D0DFF8EC03844224D09B
:104D1000DFF8E803844220D0DFF8E40384421CD0AB
:104D2000DFF8E003844218D0DFF8DC03844214D0BB
:104D3000DFF8D803844210D0DFF8D40384420CD0CB
:104D4000DFF8D003844208D0DFF8CC03844204D0DB
:104D50007121DFF8C803FEF70DF820684008400015
:104D6000206000202060002060600020A060002003
:104D7000E060DFF87803844208D1DFF8A40300681C
:104D800050F00F00DFF8981308608DE0DFF8600343
:104D9000844208D1DFF88803006850F0F000DFF8A3
:104DA0008013086080E0DFF84C03844208D1DFF80C
:104DB0007003006850F47060DFF86413086073E0FB
:104DC000DFF83403844208D1DFF85403006850F45C
:104DD0007040DFF84C13086066E0DFF8200384427F
:104DE00008D1DFF83C03006850F47020DFF830137E
:104DF000086059E0DFF80803844208D1DFF8200397
:104E0000006850F47000DFF8181308604CE0DFF819
:104E1000F402844208D1DFF80803006850F07060A3
:104E2000DFF8FC1208603FE0DFF8DC02844208D1C2
:104E3000DFF8F002006850F00F00DFF8E8120860B9
:104E400032E0DFF8C802844208D1DFF8D8020068F7
:104E500050F0F000DFF8CC12086025E0DFF8B00277
:104E6000844208D1DFF8BC02006850F47060DFF8BB
:104E7000B412086018E0DFF89C02844208D1DFF821
:104E8000A402006850F47040DFF8981208600BE04C
:104E9000DFF88402844207D1DFF88802006850F40A
:104EA0007020DFF88012086010BD38B504000D00D6
:104EB0000020DFF838128C4230D0DFF83402844210
:104EC0002CD0DFF83002844228D0DFF82C02844254
:104ED00024D0DFF82802844220D0DFF82402844264
:104EE0001CD0DFF82002844218D0DFF81C02844274
:104EF00014D0DFF81802844210D0DFF81402844284
:104F00000CD0DFF81002844208D0DFF80C02844293
:104F100004D0CF21DFF80402FDF72CFFA868102889
:104F200007D0A868002804D0D021DFF8F001FDF7F1
:104F300021FFE868002803D0E868B0F5803F04D37B
:104F4000D121DFF8D801FDF715FF2869402807D0E7
:104F50002869002804D0D221DFF8C001FDF70AFF3C
:104F60006869802807D06869002804D0D321DFF859
:104F7000AC01FDF7FFFEA86900280ED0A8694FF428
:104F80008071884209D0A8694FF40071884204D02A
:104F9000D421DFF88801FDF7EDFEE86900280CD088
:104FA000E869B0F5806F08D0E869B0F5006F04D00B
:104FB000D521DFF86801FDF7DDFE286A202807D03B
:104FC000286A002804D0D621DFF85001FDF7D2FE70
:104FD000686AB0F5405F0FD0686AB0F5005F0BD02B
:104FE000686AB0F5805F07D0686A002804D0D721CE
:104FF000DFF82801FDF7BEFEA86AB0F5804F07D0A4
:10500000A86A002804D0D821DFF81001FDF7B2FE0D
:105010002068DFF814110840A9682A6A11432A6938
:1050200011436A691143AA691143EA6911436A6A23
:105030001143AA6A114308432060E8686060286849
:10504000A0606868E06031BD38B504000D00DFF88D
:105050009C00844231D0DFF8980084422DD0DFF8E4
:105060009400844229D0DFF89000844225D0DFF8F4
:105070008C00844221D0DFF8880084421DD0DFF804
:105080008400844219D0DFF88000844215D0DFF814
:105090007C00844211D0DFF8780084420DD0DFF824
:1050A0007400844209D0DFF87000844205D040F2D9
:1050B0002911DFF86800FDF75DFEEDB2002D08D084
:1050C000EDB2012D05D04FF49571DFF85000FDF7DA
:1050D00051FEEDB2002D04D0206850F00100206098
:1050E00003E0206840084000206031BD0800024015
:1050F0001C000240300002404400024058000240C0
:105100006C00024080000240080402401C0402407F
:105110003004024044040240580402405C5D000830
:1051200004000240040402400F80FFFF80B501200C
:10513000FFF7A3FA0020FFF7A0FA01BD38B505007C
:105140000C0000200090ADB2042D00F07F80ADB2C5
:10515000082D7BD0ADB20C2D78D0ADB2102D75D00E
:10516000ADB2142D72D0ADB2182D6FD0ADB21C2DD2
:105170006CD0ADB2202D69D0ADB2242D66D0ADB2C9
:10518000282D63D0ADB2402D60D0ADB2442D5DD09E
:10519000ADB2482D5AD0ADB24C2D57D0ADB2502D36
:1051A00054D0ADB2542D51D0ADB2582D4ED0ADB279
:1051B0005C2D4BD0ADB2602D48D0ADB2642D45D042
:1051C000ADB2682D42D0ADB26C2D3FD0ADB2702DD6
:1051D0003CD0ADB2742D39D0ADB2782D36D0ADB251
:1051E0007C2D33D0ADB2802D30D0ADB2842D2DD0FA
:1051F000ADB2882D2AD0ADB28C2D27D0ADB2902D76
:1052000024D0ADB2942D21D0ADB2982D1ED0ADB228
:105210009C2D1BD0ADB2A02D18D0ADB2A42D15D0B1
:10522000ADB2A82D12D0ADB2AC2D0FD0ADB2B02D15
:105230000CD0ADB2B42D09D0ADB2B82D06D0ADB200
:10524000BC2D03D0E6214F48FDF794FD4E48009059
:105250000098ADB2281800900098A4B2046031BD47
:1052600010B582B0040000200090A4B2042C00F01D
:105270007F80A4B2082C7BD0A4B20C2C78D0A4B22E
:10528000102C75D0A4B2142C72D0A4B2182C6FD0EC
:10529000A4B21C2C6CD0A4B2202C69D0A4B2242CB3
:1052A00066D0A4B2282C63D0A4B2402C60D0A4B2A3
:1052B000442C5DD0A4B2482C5AD0A4B24C2C57D068
:1052C000A4B2502C54D0A4B2542C51D0A4B2582C17
:1052D0004ED0A4B25C2C4BD0A4B2602C48D0A4B267
:1052E000642C45D0A4B2682C42D0A4B26C2C3FD020
:1052F000A4B2702C3CD0A4B2742C39D0A4B2782CB7
:1053000036D0A4B27C2C33D0A4B2802C30D0A4B23E
:10531000842C2DD0A4B2882C2AD0A4B28C2C27D0D7
:10532000A4B2902C24D0A4B2942C21D0A4B2982C56
:105330001ED0A4B29C2C1BD0A4B2A02C18D0A4B216
:10534000A42C15D0A4B2A82C12D0A4B2AC2C0FD08F
:10535000A4B2B02C0CD0A4B2B42C09D0A4B2B82CF6
:1053600006D0A4B2BC2C03D0F9210648FDF702FDFB
:10537000054800900098A4B220180090009800887A
:1053800016BD0000F05C0008006C004010B5040081
:10539000E4B2002C06D0E4B2012C03D088210348EB
:1053A000FDF7E8FC0248E4B2046010BD345E00087A
:1053B00020000E4262F30F2262F31F42401810F0E9
:1053C000030308D0C91A1FD3DB0748BF00F8012D1B
:1053D00028BF20F8022D130030B4144615461039AA
:1053E00028BF20E93C00FAD8490728BF20E90C0073
:1053F00048BF40F8042D890028BF20F8022D48BF7F
:1054000000F8012D30BC7047C91818BF00F8012DF5
:10541000CB0728BF00F8012D7047000062B38B074F
:1054200008D0521E11F8013B00F8013B00F0248027
:105430008B07F6D1830740F0208000BF103A07D3D6
:1054400030B4B1E83810103AA0E83810F9D230BCC6
:10545000530724BFB1E80810A0E8081044BF51F872
:10546000043B40F8043BD20724BF31F8022B20F85C
:10547000022B44BF0B7803707047083A07D3B1E89A
:105480000810083A40F8043B40F804CBF7D2530721
:10549000E4E700002DE9F04F93B0814617461D4622
:1054A000029102AE002009E017F8011B0298C847DC
:1054B0000290002800F0CF81B069401CB0613878BC
:1054C00008B9B069C9E12528EED10020F06030614B
:1054D000706101E040F0010017F8011F2029F9D0A8
:1054E00023290ED02B2904D02D2906D030290CD009
:1054F0000FE040F0020080B2EEE740F0040080B21E
:10550000EAE740F0080080B2E6E740F0100080B221
:10551000E2E72A290DD129680A1D2A60096831624B
:10552000002904D54942316240F0040080B27F1C5A
:1055300013E0002131620BE0316A6FF000439942C1
:1055400005D001EB810302EB4301303931627F1C4E
:105550003A78A2F130010A29EED339782E291CBFFE
:105560004FF0FF31F1611ED117F8011F2A2906D132
:1055700029680A1D2A600968F1617F1C13E0002177
:10558000F1610BE0F1696FF00043994205D001EB46
:10559000810302EB43013039F1617F1C3A78A2F1BB
:1055A00030010A29EED3B08439780FF2843000F04C
:1055B000C3F908B117F8010B8DF82E009DF82E00E5
:1055C000682804BF3878682803D162208DF82E003F
:1055D0007F1C0CA8B0603A78252A00F0B980582AC0
:1055E00030D0632A00F0A380642A18BF692A64D0EF
:1055F0006F2A27D0702A1CD0732A04D0752A18BFAE
:10560000782A1FD09DE02868011D2960006870601D
:10561000F269002A03D5FEF72DFD30619DE00021DF
:1056200000F096F900281ABF7168401AF0693061DD
:1056300093E02868011D2960006801900CA8706043
:10564000782170E09DF82E306C2B08BF286811D0AF
:10565000712B08BF286802D06A2B28680AD1C01DA8
:1056600020F007002860014601F108002860D1E918
:10567000000102E0011D296000680190682B04BF51
:1056800001A8008803D0622B02D101A80078019004
:1056900096F82400000741D5019800283ED042F03A
:1056A000200078283AD1F0680CA930234354401CDC
:1056B000411CF1600CA9425430E09DF82E00622894
:1056C00002D0682806D00BE02868011D296090F9F7
:1056D000000009E02868011D2960B0F9000003E01E
:1056E0002868011D296000680190002805D5F06830
:1056F000411CF1600CA92D230FE0B08C810705D56A
:10570000F068411CF1600CA92B2306E0C00705D509
:10571000F068411CF1600CA920234354F0680CA9E7
:1057200040187060114601A800F09AF815E0F06882
:10573000411CF16029680A1D2A600CAA096881547D
:105740000BE0F068411CF1600CA92523435422B101
:10575000F068411CF1600CA942547F1C306AF1686A
:10576000401A7169401A3169A0EB010896F82400CB
:10577000400719D420208DF80000B8F1010F13DB89
:1057800044464FF0010A0DF1000B1BF8011B029873
:10579000C847029000285ED0B069401CB061BAF1E1
:1057A000010AF2D1641EECD1F4680DF1300A5CB14B
:1057B0001AF8011B0298C847029000284BD0B06924
:1057C000401CB061641EF3D130208DF80000D6F883
:1057D00014B0BBF1010F10DB01240DF1000A1AF81F
:1057E000011B0298C8470290A8B3B069401CB06181
:1057F000641EF4D1BBF1010BEED13469D6F804A0DC
:1058000054B11AF8011B0298C847029018B3B06946
:10581000401CB061641EF4D196F8240040077FF567
:105820004EAE20208DF80000B8F1010FFFF647AE14
:1058300001240DF1000A1AF8011B0298C8470290D2
:1058400048B1B069401CB061641EF4D1B8F10108E0
:105850003FF435AEECE74FF0FF3013B0BDE8F08F0A
:10586000F0B4C2686F2908BF082405D041F02003B6
:10587000782B14BF0A241024182305682E466429A7
:1058800018BF692902D1002D48BF7642002E04BFFF
:10589000056A002D09D1082C27D190F82810090796
:1058A00023D517233021D1751FE05D1E2B46B6FB93
:1058B000F4F704FB17663036F6B23A2E24BFA1F196
:1058C000510C6644AE543E0003D085689F18BD421B
:1058D000EBD3082C09D190F82810090705D5995C5D
:1058E000302902D05B1E30219954C3F11801416167
:1058F0009A188260026A914207DA511A8161018D19
:105900004FF6EF721140018510E0002A0ED590F895
:10591000282002F01402102A08D1426A0369D21A20
:105920008369D21A531A012BA8BF8361F0BC704758
:10593000686C747A4C0000000278C9B28A421AB1CD
:105940001CBF10F8012FF9E718BF002070470000B6
:10595000C9B2830706D0521E22D310F8013B9942E8
:10596000F7D11FE0083A13D302F1040241EA012102
:1059700041EA014150F8043B121F21BF4B40A3F103
:10598000013C2CEA030C1CF0803FF3D0C9B2001F8D
:10599000083210F8013B521E28BF91EA030FF8D8D5
:1059A00018BF0120401E704780B54F48006850F076
:1059B00001004D4908604D4800684D4908404B4979
:1059C0000860494800684B49084047490860464814
:1059D000006830F48020444908604448006830F48E
:1059E000FE004249086044485FF41F01016000F076
:1059F00005F842485FF00061016001BD80B500F02C
:105A000001F801BD82B000200190002000903648CE
:105A1000006850F48030344908603348006810F45E
:105A2000003000900198401C01900098002803D19C
:105A30000198B0F5A06FF0D12B480068800302D523
:105A40000120009001E0002000900098012847D13B
:105A50002B48006850F01000294908602848006869
:105A600080088000264908602548006850F0020040
:105A7000234908601D481D49096801601B481B49EE
:105A8000096801601948006850F48060174908608F
:105A90001648006830F47C10144908601348006808
:105AA00050F4E810114908600F48006850F0807009
:105AB0000D4908600C4800688001FBD50B48006860
:105AC00080088000094908600848006850F002001A
:105AD000064908600548006810F00C000828F9D154
