:100000000C9446000C9466000C9466000C946600F8
:100010000C9466000C9466000C9466000C946600C8
:100020000C9466000C9466000C9466000C946600B8
:100030000C9466000C9466000C9466000C946600A8
:100040000C9466000C9466000C9466000C94660098
:100050000C9466000C9466000C9466000C94660088
:100060000C9466000C9466000C9466000C94660078
:100070000C9466000C9466000C9466000C94660068
:100080000C9466000C9466000C94660011241FBE4C
:10009000CFEFD0E1DEBFCDBF11E0A0E0B1E0EAE5F7
:1000A000F1E000E00BBF02C007900D92A030B10755
:1000B000D9F71BBE11E0A0E0B1E001C01D92A03055
:1000C000B107E1F70E9468000C94AB000C940000AB
:1000D00080E187BB8EE783BF12BE11BE81E087B986
:1000E0003E9A86E886B924E030E0369A349BFECF0B
:1000F00084B190E045B1F42FE0E08E2B9F2BB90145
:100100000E94840061BFF1CF97FB092E07260AD019
:1001100077FD04D00CD006D000201AF470956195BC
:100120007F4F0895F6F7909581959F4F0895AA1BEC
:10013000BB1B51E107C0AA1FBB1FA617B70710F0D2
:10014000A61BB70B881F991F5A95A9F78095909504
:0A015000BC01CD010895F894FFCF23
:00000001FF
