:100000000C9446000C9466000C9466000C946600F8
:100010000C9466000C9466000C9466000C946600C8
:100020000C9466000C9466000C9466000C946600B8
:100030000C9466000C9466000C9466000C946600A8
:100040000C9468000C9466000C9466000C94660096
:100050000C9466000C9466000C9466000C94660088
:100060000C9466000C9466000C9466000C94660078
:100070000C9466000C9466000C9466000C94660068
:100080000C9466000C9466000C94660011241FBE4C
:10009000CFEFD0E1DEBFCDBF11E0A0E0B1E0E4E3FF
:1000A000F1E000E00BBF02C007900D92A830B1074D
:1000B000D9F71BBE11E0A8E0B1E001C01D92AB3042
:1000C000B107E1F70E948E000C9498000C94000098
:1000D0001F920F920FB60F920BB60F9211248F93AF
:1000E000EF93FF9383E882BF80910801E0E0F1E0A5
:1000F000E80FF11D808185BB809108018F5F80939F
:100100000801877080930801FF91EF918F910F9004
:100110000BBE0F900FBE0F901F90189585E083BF08
:1001200083E882BF81E087BF78948FE084BBFFCFF4
:04013000F894FFCF71
:0801340001030206040C080996
:00000001FF
