:100000000C9446000C9466000C9466000C946600F8
:100010000C9466000C9466000C9466000C946600C8
:100020000C9466000C9466000C9466000C946600B8
:100030000C9466000C9466000C9466000C946600A8
:100040000C94B2010C9466000C9466000C9466004B
:100050000C9466000C9466000C9466000C94660088
:100060000C9466000C9466000C9466000C94660078
:100070000C9466000C9466000C9466000C94660068
:100080000C9466000C9466000C94660011241FBE4C
:10009000CFEFD0E1DEBFCDBF11E0A0E0B1E0E0E105
:1000A000F4E000E00BBF02C007900D92AA30B10748
:1000B000D9F71BBE11E0AAE0B1E001C01D92AF303C
:1000C000B107E1F70E94E5010C9406020C940000D0
:1000D0008FEF8ABB8CE082B98093610085E083BF9B
:1000E00083E882BF81E087BF789408950895809166
:1000F0000B0190910C01019690930C0180930B01E0
:1001000080910B0190910C0123E0883E9207D1F47D
:1001100010920C0110920B0180910E018F5F809361
:100120000E0180910E018C3339F410920E018091F2
:100130000D018F5F80930D0180910D018C3311F4BF
:1001400010920D0113B81092620080910A01882369
:1001500069F480910E016AE00E94FA01E92FF0E053
:10016000E050FF4F80818BBB84E010C080910A017A
:10017000813079F480910E016AE00E94FA01E82F43
:10018000F0E0E050FF4F80818BBB88E080936200FD
:1001900022C080910A01823069F480910D016AE0E9
:1001A0000E94FA01E92FF0E0E050FF4F80818BBB05
:1001B00084E010C080910A01833069F480910D01C0
:1001C0006AE00E94FA01E82FF0E0E050FF4F8081E2
:1001D0008BBB88E083B980910A018F5F80930A010D
:1001E000837080930A01089517BAE5E6F0E08081F4
:1001F0008E7F808380818260808380818460808321
:1002000086B390819B7F90830895EFE9FFE031975B
:10021000F1F700C000009FEF97BBE5E6F0E09081AA
:100220009E7F908390819D7F908388BB8081846036
:10023000808380818B7F8083089517BAE5E6F0E0A4
:1002400080818160808380818260808380818460FE
:10025000808386B390819B7F90830895EFE1FEE4D5
:100260003197F1F700C000009FEF97BBE5E6F0E0A3
:1002700090819160908390819D7F908388BB8081E5
:100280008460808380818B7F808308958FEF87BB1C
:1002900087E0809364008FE59AEE0197F1F700C044
:1002A000000088E30E940501AFE1BEE41197F1F779
:1002B00000C0000088E30E9405018FEF91EEA4E0EA
:1002C00081509040A040E1F700C0000088E30E9408
:1002D000050188E00E94050181E00E94050186E099
:1002E0000E9405018CE00E9405010895CF93DF93E1
:1002F000EC0102C00E942E0189918823D9F7DF9179
:10030000CF9108956295660F660F607C8068862B9A
:100310000E94050108950F931F93CF93DF930F92CF
:10032000CDB7DEB7082F64E60E94FA01805D99839D
:100330000E942E011AE09981892F612F0E94FA01F3
:10034000805D0E942E01802F612F0E94FA01892F6B
:10035000805D0E942E010F90DF91CF911F910F9130
:10036000089508951F920F920FB60F920BB60F9239
:1003700011242F933F934F935F936F937F938F93AA
:100380009F93AF93BF93EF93FF9383E882BF8091D6
:100390000B0190910C01019690930C0180930B013D
:1003A0000E947700FF91EF91BF91AF919F918F9144
:1003B0007F916F915F914F913F912F910F900BBE65
:1003C0000F900FBE0F901F9018950E9468000E941A
:1003D000460180E060E00E94820180E090E00E949F
:1003E00076010E9468008FE39CE90197F1F700C055
:1003F0000000F3CF991B79E004C0991F961708F00D
:10040000961B881F7A95C9F780950895F894FFCFB9
:0A041000C0F9A4B0999282F8809020
:00000001FF
