:100000000C9446000C9466000C9466000C946600F8
:100010000C9466000C9466000C9466000C946600C8
:100020000C9466000C9466000C9466000C946600B8
:100030000C9466000C9466000C9466000C946600A8
:100040000C9466000C9466000C9466000C94660098
:100050000C9466000C9466000C9466000C94660088
:100060000C9466000C9466000C9466000C94660078
:100070000C9466000C9466000C9466000C94660068
:100080000C9466000C9466000C94660011241FBE4C
:10009000CFEFD0E1DEBFCDBF11E0A0E0B1E0EAE3F9
:1000A000F1E000E00BBF02C007900D92A030B10755
:1000B000D9F71BBE11E0A0E0B1E001C01D92A03055
:1000C000B107E1F70E9468000C949B000C940000BB
:1000D0008FEF84BB15BA80E182B92AC025B3220F05
:1000E00025BB873091050CF4A89A2FE332E44FE04A
:1000F000215030404040E1F700C0000001968F30B1
:10010000910564F380E090E025B3269525BB873008
:1001100091050CF4AF9A2FE332E44FE021503040C8
:100120004040E1F700C0000001968F30910561F773
:0A01300080E090E0E4CFF894FFCFE8
:00000001FF
