:100000000C9446000C9466000C9466000C946600F8
:100010000C9466000C9466000C9466000C946600C8
:100020000C9466000C9466000C9466000C946600B8
:100030000C9466000C9466000C9466000C946600A8
:100040000C9466000C9466000C9466000C94660098
:100050000C9466000C9466000C9466000C94660088
:100060000C9466000C9466000C9466000C94660078
:100070000C9466000C9466000C9466000C94660068
:100080000C9466000C9466000C94660011241FBE4C
:10009000CFEFD0E1DEBFCDBF11E0A0E0B1E0E0E8FE
:1000A000F1E000E00BBF02C007900D92A030B10755
:1000B000D9F71BBE11E0A0E0B1E001C01D92A03055
:1000C000B107E1F70E9468000C94BE000C94000098
:1000D0008FEF8ABB87BB3CE78EEFEEE723E191E130
:1000E0003BBB88BB4FEF56E761E04150504060405A
:1000F000E1F700C00000EBBB88BB4FEF56E761E0C3
:10010000415050406040E1F700C000002BBB88BB6D
:100110004FEF56E761E0415050406040E1F700C0CA
:1001200000009BBB88BB4FEF56E761E04150504059
:100130006040E1F700C000009BBB88BB4FEF56E773
:1001400061E0415050406040E1F700C000002BBB2F
:1001500088BB4FEF56E761E0415050406040E1F707
:1001600000C000003BBB88BB4FEF56E761E0415049
:1001700050406040E1F700C00000B2CFF894FFCFDC
:00000001FF
